:020000040800F2
:10000000A80E0020450100084D0100084F0100081E
:1000100051010008530100085501000800000000CC
:100020000000000000000000000000005701000870
:1000300059010008000000005B01000825120008BB
:100040005F0100085F0100085F0100085F01000810
:100050005F0100085F0100085F0100085F01000800
:100060005F0100085F0100085F0100085F010008F0
:10007000FD0100085F0100085F0100085F01000842
:100080005F0100085F0100085F0100085F010008D0
:100090005F0100085F0100085F0100085F010008C0
:1000A0005F0100085F0100085F0100085F010008B0
:1000B0005F0100085F0100085F0100085F010008A0
:1000C0005F0100085F0100085F0100085F01000890
:1000D0005F0100085F0100085F0100087513000858
:1000E0005F0100085F0100085F0100085F01000870
:1000F0005F0100085F0100085F0100085F01000860
:100100005F0100085F0100085F0100085F0100084F
:100110005F0100085F0100085F0100085F0100083F
:100120005F0100085F0100085F0100085F0100082F
:10013000DFF80CD000F02AF800480047E516000868
:10014000A80E00200648804706480047FEE7FEE765
:10015000FEE7FEE7FEE7FEE7FEE7FEE7FEE7FEE777
:10016000491200083101000840EA01039B0703D04F
:1001700009E008C9121F08C0042AFAD203E011F8E6
:10018000013B00F8013B521EF9D27047064C074D67
:1001900006E0E06840F0010394E807009847103457
:1001A000AC42F6D3FFF7C8FF6017000880170008BD
:1001B0000348008840F001000149088070470000B2
:1001C000346C004008B501460020009003480090C0
:1001D0000098084400900098008808BD006C00401A
:1001E00008B500220092044A0092009A024400924C
:1001F000009A116008BD0000006C004007480068CC
:1002000010F0200F09D02020044948600846C0693A
:100210004FF6FE7108400149C86170470000024076
:1002200021B1026842F00102026004E002684FF668
:10023000FE731A400260704701684FF6FE7211406B
:1002400001600021016041608160C1604B498842CA
:1002500008D14A490839496841F00F01474A083A2C
:1002600051608AE045491431884208D14349083930
:10027000496841F0F001414A083A51607DE03F4948
:100280002831884208D13D490839496841F47061F4
:100290003A4A083A516070E038493C31884208D106
:1002A00036490839496841F47041344A083A516086
:1002B00063E032495031884208D1304908394968F1
:1002C00041F470212D4A083A516056E02B496431BF
:1002D000884208D129490839496841F47001274A00
:1002E000083A516049E025497831884208D12349CC
:1002F0000839496841F07061204A083A51603CE091
:100300001F49884206D1011F096841F00F01021FF1
:10031000116032E01A491431884208D11849091F86
:10032000096841F0F001164A121F116025E01449D6
:100330002831884208D11249091F096841F47061C7
:100340000F4A121F116018E00D493C31884208D154
:100350000B49091F096841F47041094A121F1160D5
:100360000BE007495031884207D10549091F096848
:1003700041F47021024A121F1160704708000240C8
:10038000080402401AB103680B43036002E00368EB
:100390008B430360704710B50022026847F6F07384
:1003A0009A430C6A8B6823430C6923434C692343AB
:1003B0008C692343CC6923434C6A23438C6A2343CF
:1003C0001A430260CB6843600B6883604B68C3606C
:1003D00010BD000000B58BB00121084600F032FBD3
:1003E0001148FFF729FF1148009011480190102093
:1003F000029020200390002004908020059000208F
:100400000690079008904FF48050099000200A90C1
:1004100069460548FFF7BFFF012202210248FFF7A6
:10042000B1FF0BB000BD00001C00024004480040BA
:100430006C000020034A106000BF024A1268002AC4
:10044000FBD1704704000020014619B10B684A68CF
:10045000981A70470020FCE710B504463CB12046CE
:10046000FFF7F2FF08B9012010BD0020FCE70120D2
:10047000FAE710B504464CB12046FFF7E5FFE16806
:10048000884201D1012010BD0020FCE70120FAE7DD
:1004900070B5044600262046FFF7DEFF50B96068BD
:1004A000E168B0FBF1F201FB1205A068465D6068EF
:1004B000401C6060304670BD30B129B122B10023CC
:1004C000036043608160C2607047F0B504460D462A
:1004D00000277CB12046FFF7CCFF58B92068E168BF
:1004E000B0FBF1F201FB1206A06885552068401CA4
:1004F000206001273846F0BD0149C8607047000000
:100500000020024030B5044604254FF4302000F0AE
:1005100085F80546042D17D10C48006940F002000B
:100520000A49086108464461006940F040000861DA
:100530004FF4302000F072F805460448006941F697
:10054000FD71084001490861284630BD0020024085
:1005500004200B49C96811F0010F01D001200EE001
:100560000749C96811F0040F01D0022007E00449CF
:10057000C96811F0100F01D0032000E0042070477B
:10058000002002400348006940F0800001490861F2
:10059000704700000020024078B506460C4604254E
:1005A00000200090E80200F039F80546042D24D11F
:1005B0001348006940F00100114908613480E802E5
:1005C00000F02CF80546042D10D1B01C0090200C32
:1005D00000990880E80200F021F805460848006903
:1005E00041F6FE7108400649086106E004480069CA
:1005F00041F6FE71084002490861284678BD0000B6
:1006000000200240024803494860034848607047A0
:100610002301674500200240AB89EFCD00B50246BB
:100620000423FFF795FF034603E0FFF791FF03461E
:10063000521E012B01D1002AF7D102B90523184619
:1006400000BD00002DE9F04706460F4614469846C7
:100650004FF0000940480078F8B1CA460025002054
:100660003D49087004F2FF704FEAD02AFFF7CAFF35
:100670003420FFF741FF00BF0AE006EBC520FFF77B
:1006800041FF042803D0FFF77DFF4FF0FF396D1CB9
:100690005545F2D33148066000BF3FE0304A12684A
:1006A000B9582E4A12682E4B1B68D018FFF774FFFA
:1006B000042825D129480068294909684058284953
:1006C0000968795888420DD026480068401C2549A1
:1006D000086008460068032820D9FFF753FF6FF031
:1006E00001091FE00020204908601E4908601C48DD
:1006F0000068001D1A490860B8F1000F0ED111E022
:1007000019480068401C184908600846006803281A
:1007100004D9FFF737FF6FF0020903E010480068C3
:10072000A042BBD300BF0E480068A04203D1FFF730
:1007300029FF4FF00109B9F1000F09D00120064946
:1007400008700020064908600749086005490860EC
:100750004846BDE8F0870000240000203400002057
:1007600028000020300000202C0000202DE9F0415E
:10077000024600250026002000230024002791F8CF
:1007800003C00CF00F0591F803C01CF0100F03D04C
:1007900091F802C04CEA050591F800C0BCF1000FC9
:1007A00031D0146800202BE04FF0010C0CFA00F35C
:1007B000B1F800C00CEA03069E4220D183004FF03E
:1007C0000F0C0CFA03F7BC4305FA03FC4CEA0404D3
:1007D00091F803C0BCF1280F06D14FF0010C0CFAC0
:1007E00000FCC2F814C00AE091F803C0BCF1480F45
:1007F00005D14FF0010C0CFA00FCC2F810C0401CEF
:100800000828D1D31460B1F800C0BCF1FF0F34DD6B
:10081000546800202EE000F1080C4FF0010808FA9F
:100820000CF3B1F800C00CEA03069E4221D183000C
:100830004FF00F0C0CFA03F7BC4305FA03FC4CEA2B
:10084000040491F803C0BCF1280F05D100F1080C95
:1008500008FA0CF8C2F8148091F803C0BCF1480FF4
:1008600007D100F1080C4FF0010808FA0CF8C2F8A3
:100870001080401C0828CED35460BDE8F0810000F1
:10088000F0B50A46002300240021002500F00046B0
:10089000B6F1004F02D11D4EF16901E01B4E7168A7
:1008A000C0F3034583B200F44016B6F5401F08D1EB
:1008B00021F07061154E766826F07066134F7E60E9
:1008C00012E000F48016B6F5801F06D1032606FA62
:1008D00005F4A14341F0706106E0460D360103FACC
:1008E00006F6B14341F0706122B1460D360103FABC
:1008F00006F6314300F00046B6F1004F02D1034E38
:10090000F16101E0014E7160F0BD000000000140A6
:100910000146886880B27047416170470161704745
:10092000074A126802604160826802F000428260F9
:10093000826822F0004202F10042826070470000AB
:10094000080000207047704708B527208DF8000088
:1009500000208DF801008DF8020001208DF80300C1
:10096000684600F011F80C208DF8000001208DF889
:10097000010000208DF8020001208DF80300684678
:1009800000F002F808BD000070B5002100230F221E
:10099000C4780CB3164C246804F4E064C4F5E06435
:1009A000210AC1F10403CA40447804FA03F18478AF
:1009B0001440214309010F4C0678A155047804F036
:1009C0001F050124AC4005786D114FF0E02606EBC1
:1009D0008505C5F8004109E0047804F01F050124ED
:1009E000AC40054D0678761145F8264070BD0000F4
:1009F0000CED00E000E400E080E100E0024901438A
:100A0000024A1160704700000000FA050CED00E09A
:100A1000BFF34F8F0648006800F4E06005490843C3
:100A2000001D03490860BFF34F8F00BFFEE70000C1
:100A30000CED00E00000FA05014908627047000073
:100A400000000E4229B1064A52690243044B5A6122
:100A500004E0034A52698243014B5A617047000027
:100A60000010024029B1064AD2690243044BDA6100
:100A700004E0034AD2698243014BDA617047000007
:100A80000010024029B1064A92690243044B9A6160
:100A900004E0034A92698243014B9A617047000067
:100AA0000010024030B500210022002400232D4D0B
:100AB0006D6805F00C0121B1042905D0082923D166
:100AC00005E0294D056022E0274D05601FE0254D1A
:100AD0006D6805F47012234D6D6805F480340225AD
:100AE00005EB92421CB9214D554305600BE01D4DAD
:100AF0006D6815F4003F03D01C4D5543056002E0BE
:100B0000194D5543056002E0174D056000BF00BF59
:100B1000144D6D6805F0F0010909154D6B5C056811
:100B2000DD4045600F4D6D6805F4E061090A104D28
:100B30006B5C4568DD4085600A4D6D6805F4605169
:100B4000C90A0B4D6B5C4568DD40C560054D6D689D
:100B500005F44041890B074D6B5CC568B5FBF3F5A7
:100B6000056130BD0010024000127A0000093D000E
:100B700038000020480000207CB505460E46002EB7
:100B80002DD0002400200090019055222146641CA5
:100B90000DF80120AA222146641C0DF801202146EF
:100BA000641C0DF801600E222146641C0DF8012022
:100BB0002146641C0DF8015000222146641C0DF8EA
:100BC00001202146641C0DF801202046611CCCB296
:100BD0000DF800502146684600F02EFD00BF7CBD98
:100BE00010B500F001F810BD0CB500200190009088
:100BF0003248006840F480303049086000BF2F4818
:100C0000006800F4003000900198401C01900098AA
:100C100018B90198B0F5A06FF1D12848006810F418
:100C2000003F02D00120009001E0002000900098D9
:100C3000012842D12248006840F010002049086095
:100C40000846006820F0030008600846006840F08D
:100C50000200086019484068184948600846406822
:100C600048600846406840F4806048600846406834
:100C700020F47C1048600846406840F4E810486062
:100C80000846006840F08070086000BF0B480068AC
:100C900010F0007FFAD00948406820F003000749AF
:100CA00048600846406840F00200486000BF0348C2
:100CB000406800F00C000828F9D10CBD001002407B
:100CC000002002404160704710B55448007838B1A8
:100CD00000205249087042F210715148FFF720FE7F
:100CE000504A5149514800F0AFF8801D082841D2C0
:100CF000DFE800F0412A42434445040552E0002168
:100D00004B48FFF7DFFF00204A490870474800883A
:100D1000012805DD48480078401C4749087008E074
:100D200042480088012804D13E4801780020FFF79E
:100D300023FF3E480088401E3B490988884202D173
:100D400003203E4908702DE0354800F007FB374886
:100D5000008820B1334801788020FFF70DFF354827
:100D60000078401CC0B233490870032801D13349D0
:100D7000087017E000BF00BF00BF00BF00BF2D48D4
:100D80000078401CC0B22B490870032801D12B49C0
:100D90000870244801788020FFF7EEFE00202149EA
:100DA000087000BF00BF24480078B8B11F49098807
:100DB000891E234A02EBC1201A490B7812142149DB
:100DC000FFF740FC012809D11B480078401E1A4952
:100DD0000870144801780020FFF7CEFE174800780D
:100DE000032819D132211248FFF76CFF0C4800F09C
:100DF00073FC062806D10120084908704FF41650EC
:100E000000F0EEFB0020094908800A4908700549F6
:100E1000087001200949087010BD00001E00002064
:100E20009C0A0020200000200C0000201C00002054
:100E300060000020210000200E0000201F00002084
:100E4000001800089C0200202DE9F04105460E46DE
:100E500014460027CD4800F063FA78B10020CC4951
:100E60000870CC490880CC490880CC490880CC491E
:100E70000880CC490870401FBDE8F081CA48FFF7E0
:100E8000EBFA002872D1C14800F068FAC048007837
:100E900009286CD2DFE800F0051130384A6CA9CD82
:100EA000F800C148FFF7F4FA552803D10120B849EA
:100EB000087001E06FF0050710E1BB48FFF7E8FAA2
:100EC0008046B8F1AA0F0FD10220B1490870002066
:100ED0002070B0490880B0490880B0490880B04906
:100EE0000880B049087006E0B8F1550F03D0002023
:100EF000A7490870871FF1E0AB48FFF7C9FA2070D7
:100F00000320A3490870E9E0A748FFF7C1FA0E28BB
:100F100005D009209E4908704FF0FF3705E00020FA
:100F20009D49088004209A490870D7E09E48FFF741
:100F3000AFFA804698480088404497490880B8F145
:100F4000A70F03D0B8F1A80F08D103E005209049FE
:100F5000087009E008208E49087005E009208C49D6
:100F600008706FF0010700BF00BFB7E007E1B1E014
:100F70008C48007850B34FF0000800208949087071
:100F8000844800884FF6FF7101EA002081490880FB
:100F90008548FFF77DFA80467E48008840EA0800D1
:100FA0007C4908807C48008840447B490880288828
:100FB00078490988884205D00920754908706FF082
:100FC000020702E00620724908700DE00120754911
:100FD00008707548FFF75CFA6E4908806E48008813
:100FE000098808446C49088078E0288808B90220FC
:100FF00001E04FF400606A490988884215DD6A48BB
:10100000FFF746FA6949664A1288885408466449D7
:101010000988405C6049098808445F490880604845
:101020000088401C5E49088002E00720584908708B
:1010300054E05C480078E8B100205A4908705748ED
:1010400000884FF6FF7101EA002054490880564895
:10105000FFF71EFA514909880843504908804E4855
:1010600000880988884201D06FF0030709204849A9
:10107000087007E001204B4908704B48FFF708FA59
:10108000464908802AE0FFE74748FFF701FA804613
:1010900041480088404440490880B8F1000F03D01F
:1010A000B8F1010F0ED106E0012041490870072078
:1010B000374908700CE001203E4908700720344988
:1010C000087005E00920324908706FF0010700BF81
:1010D00000BF03E009202E49087000BF00BF2C4864
:1010E000007809284FD1002029490870207832491A
:1010F0000978884204D02078FF2801D02078E8BB06
:10110000EFBB288870B92648008802280AD12749F1
:101110004978264A127841EA022030800021204A8C
:10112000118000BF2888401C2880012720480078B3
:1011300088B100201E4908702178FFF71DFD00F0DE
:10114000AFFA41F225210420FFF74AF8012000F010
:10115000BEFAFFF75DFC1748007880B10020154902
:1011600008702178FFF708FD00F09AFA00210420AA
:10117000FFF736F8012000F0AAFA01E002E002E0F1
:10118000FFF746FC0027384676E600009C0A002060
:101190000F0000201000002012000020140000208A
:1011A00016000020180000208C0200209C02002065
:1011B000190000201A0000200000002030B5164859
:1011C00000684FF47A72B0FBF2F1481EB0F1807FF4
:1011D00001D301201BE0481E4FF0E0225061501760
:1011E0000F22002807DA13071D0E0C4B00F00F0426
:1011F000241F1D5503E013071C0E094B1C5400BF90
:1012000000204FF0E022906107201061002008B11B
:1012100000BFFEE730BD00004C00002018ED00E0EC
:1012200000E400E00648006820B105480068401E60
:101230000349086003480068401C02490860704781
:1012400004000020080000202DE9F04100270121C2
:101250004FF0C050FFF706FC01210420FFF712FCFD
:101260000120FFF7E9FBFEF7A3FF002608E0264870
:10127000FFF74EFB00F4C06404B103E0701C86B2BB
:10128000C82EF4DB00BF40F217310820FEF7A8FF9C
:101290000420FEF797FF0746A7F5905025380CD09D
:1012A0005CB100210420FEF79BFF1849086880F319
:1012B000088800BF081D0568A8471548006840F069
:1012C0000100134908600846406812490840104967
:1012D000486008460068104908400D490860084603
:1012E000006820F4802008600846406820F4FE0072
:1012F00048604FF41F008860FFF772FC4FF00060F9
:1013000006490860BDE8F0810008014000180008A7
:10131000001002400000FFF8FFFFF6FE08ED00E0BD
:1013200030B501460A680C4C23689C1A4D68AC42E3
:1013300001D9012400E00024204660B18C68E40F4C
:1013400009D08C6824F000448C608C68641C8D6823
:1013500064F31E058D6030BD080000200449096853
:101360000160816821F0004101F100418160704716
:101370000800002010B51048008810F0200F06D09B
:101380000D48001D0088C1B20C48FFF79EF80A48BE
:10139000008810F0400F0ED0074800884FF6BF714C
:1013A0000840054908800020054908704FF40041B5
:1013B0000448FFF7B3FA10BD004800408C0200203B
:1013C000010000200008014021B1828942F400524E
:1013D000828104E082894DF6FF731A408281704752
:1013E0001FB5044601218804FFF73CFB0094002050
:1013F000ADF80400ADF80600ADF80800ADF80C003B
:101400000C20ADF80A0069460B4800F07DF80A4848
:101410000C30008840F0200007490C310880084655
:10142000008840F040000880034800884FF6BF71F4
:101430000840014908801FBD004800401AB1838A56
:101440000B43838202E0838A8B43838270470000D0
:1014500008B501210846FFF715FB01211F48FFF7DA
:101460000FFA01211E48FFF70BFA01211020FFF7A8
:1014700009FB4FF48060ADF8000018208DF80300E0
:1014800003208DF8020069461648FFF76FF94FF404
:101490000060ADF8000004208DF8030003208DF8F3
:1014A000020069460F48FFF761F901210420FFF7A8
:1014B000E9FA4FF40040ADF8000010208DF8030069
:1014C00001208DF8020069460748FFF74FF94FF4F5
:1014D00000410548FFF722FA08BD00001000140083
:1014E00000023000001001400008014002460020C8
:1014F000B1F5007F00D100BF13880B4201D001205D
:1015000000E00020704700002DE9F04786B0054656
:101510000E460024A24600BFA1460027B08900B1B4
:1015200000BF2F462C8A4CF6FF700440F08804431D
:101530002C82AC894EF6F3100440B0883189084300
:10154000718908430443AC81AC8A4FF6FF400440E4
:10155000B0890443AC8201A8FFF7A4FA1F48874270
:1015600002D1DDF810A001E0DDF80CA0A88910F48C
:10157000004F08D00AEBCA0000EB0A10316849009E
:10158000B0FBF1F807E00AEBCA0000EB0A10316883
:101590008900B0FBF1F86420B8FBF0F004012009E9
:1015A000642101FB1089A88910F4004F08D0322073
:1015B00000EBC900B0FBF1F000F00700044308E0C5
:1015C000322000EB09106421B0FBF1F000F00F00B5
:1015D00004432C8106B0BDE8F087000000380140CC
:1015E00010B50446FFF734FF80210F48FFF77EFF58
:1015F0002046FFF7F5FEFEF7EDFEFFF7A5F9012205
:1016000080210948FFF71AFF00210848FEF708FE6D
:1016100001210548FFF7D8FE4FF400720449054840
:10162000FEF74AFF10BD0000004800401C000240C9
:101630008C0000208C02002070B505460C4600BFCF
:101640001248008810F0400FFAD11148C0694FF6D7
:10165000FE7108400E49C8614FF400410D48FFF784
:101660005BF905200021FEF7E5FE224629460A48DF
:10167000FEF77AFD06480462C06940F001000449A3
:10168000C86101200549087070BD00000048004095
:1016900000000240000801406C0000200100002012
:1016A00000BF024800780028FBD1704701000020ED
:1016B00002E008C8121F08C1002AFAD1704770471B
:1016C000002001E001C1121F002AFBD1704700F089
:1016D000010181F3138870470146886820F00040BB
:1016E000704700001FB54FF44070FFF787F9FFF710
:1016F00065FDFFF727F94FF41650FFF771FF002043
:1017000000F028F832210E48FFF70AF90DA30FCB9D
:101710008DE80F004FF4FA700021FEF78BFE0F21C9
:101720006846FFF789FF00BF0548FFF7F9FD20B1C4
:10173000FFF709F90248FFF711FEFFF7C5FAF3E7D3
:101740006000002048656C6C6F2C20776F726C64B1
:101750002E0D0A00014908707047000000000020AB
:10176000801700080000002060000000B01600088C
:10177000E017000860000020480E0000C0160008B6
:101780000000000000000000000000000000000059
:101790000000000000000000000000000000010147
:1017A0000000000001000000000000000000000038
:1017B000000000000000000000000000010203041F
:1017C00001020304060708090204060800A24A04ED
:1017D00000000000000000000102030406070809E1
:0400000508000131BD
:020000040800F2
:10180000C8340020310A0208390A02083B0A0208DB
:101810003D0A02083F0A0208410A020800000000CF
:10182000000000000000000000000000430A020861
:10183000450A020800000000470A0208F11B0008E0
:101840004B0A02084B0A02084B0A02084B0A02081C
:101850004B0A02084B0A02084B0A02084B0A02080C
:101860004B0A02084B0A02084B0A02084B0A0208FC
:101870003D2C00084B0A02084B0A02084B0A0208DA
:101880004B0A02084B0A02084B0A02084B0A0208DC
:101890004B0A02084B0A02084B0A02084B0A0208CC
:1018A0004B0A02084B0A02084B0A02084B0A0208BC
:1018B0004B0A0208F7250008AD2300084B0A02086E
:1018C0004B0A02084B0A02084B0A02084B0A02089C
:1018D0004B0A02084B0A02084B0A0208B12B000807
:1018E0004B0A02084B0A02084B0A02084B0A02087C
:1018F0004B0A02084B0A02084B0A02084B0A02086C
:101900004B0A02084B0A02084B0A02084B0A02085B
:101910004B0A02084B0A02084B0A02084B0A02084B
:101920004B0A02084B0A02084B0A02084B0A02083B
:1019300000F002F800F03AF80AA090E8000C8244A7
:101940008344AAF10107DA4501D100F02FF8AFF284
:10195000090EBAE80F0013F0010F18BFFB1A43F08D
:10196000010318475C6802007C680200103A24BF3B
:1019700078C878C1FAD8520724BF30C830C144BFF4
:1019800004680C6070470000002300240025002636
:10199000103A28BF78C1FBD8520728BF30C148BFD2
:1019A0000B6070471FB51FBD10B510BD1FF012F9B9
:1019B0001146FFF7F7FF00F009F81FF030F903B404
:1019C000FFF7F2FF03BC1FF031F9000000F056FBF7
:1019D00000208349087001E1814800780A2801DA73
:1019E0001DF06DF87F48006800283AD07D480068F7
:1019F0007D498968084201D019F048FF794800689C
:101A00007949C968084201D001F0BBF975480068FE
:101A100075494968084201D001F0E8F97148006849
:101A20007149C969084201D00EF02DFD6F48407E12
:101A300038B16C4800686C498969084201D01CF0D3
:101A400014F8684800686849096A084201D002F041
:101A5000ACF8644800686449496A084201D004F05F
:101A600002FD60484068002837D05E4840685E4903
:101A70000968084201D01AF05BF85A4840685A4990
:101A80004968084201D01BF0ADF8564840685649F5
:101A90008968084201D01BF048FC5248406852490E
:101AA0000969084201D014F0CCFF4E4840684E4905
:101AB0004969084201D015F0DAFA4A4840684A49B3
:101AC0008969084201D016F0D7F84648406846496F
:101AD000C969084201D01CF05DF8424880680028BE
:101AE00049D04048806840494968084201D013F015
:101AF000D9F93C4880683C498968084201D014F013
:101B0000A3FA3848806838490968084201D012F0C1
:101B10003DFB3448806834494969084201D012F0DD
:101B2000A6FB304880683049C968084201D016F0E9
:101B30007AF92C4880682C490969084201D016F0CE
:101B400022FB2848806828498969084202D0002081
:101B500013F0DEF8234880682349C969084202D09F
:101B6000012013F0D5F81F4880681F49096A084210
:101B700001D013F07CF91B48C06878B31948C068DD
:101B800019490968084201D012F08AFC1548C0685A
:101B900015494968084201D012F0ADFD1148C068EE
:101BA00011498968084201D012F06CFE0D48C068E6
:101BB0000D49C968084201D012F0F2FE0948C06818
:101BC00009490969084201D012F0FBFF0548C068C5
:101BD00005494969084201D013F008F8FCE6000005
:101BE000220000201401002050200208B01600201E
:101BF000FE480088401C00B2FC4908800846B0F945
:101C00000000B0F57A7F37DB00200880F848407E7E
:101C100050B3F84890F85D00401CC1B2F54880F818
:101C20005D10F548007806280DD1F4480088022898
:101C300009D1F3480068F349C9690843F0490860CD
:101C40000120F1490870EB4890F85D003B2813DD56
:101C50000021E84880F85D10E9480068E949896991
:101C60000843E749086007E0E5480068E549D1F81E
:101C700098100840E2490860E448007898B1E448C8
:101C80000078401CE24908700846007808280ADD00
:101C900000200870DD490870D9480068D9494968B2
:101CA0000843D7490860704710B56FF001001EF077
:101CB0001DFA00201EF035FA6FF004001EF0FEF948
:101CC00042F227301EF00EFA01201EF02AFA0120FF
:101CD0001EF00CFA10BD10B51EF084FB4FF48030DE
:101CE0001EF0A0FB1EF0DDFB0446012C1ED10020DF
:101CF0001EF01EFC00201EF02DFCA0021EF021FC98
:101D00004FF4E01120041EF0F6FB01201EF0FFFB53
:101D100000BF39201EF0A9FB0028FAD002201EF0D7
:101D2000F9FB00BF1EF0FFFB0828FBD110BD08B572
:101D3000B8481CF00FFDB8481CF00CFDB7481CF06B
:101D400009FDB7481CF006FD0121B6481CF031FE24
:101D50004FF48060ADF8000001208DF802001820DB
:101D60008DF803006946AD481CF054FD4FF4006047
:101D7000ADF8000004208DF803006946A7481CF068
:101D800049FD4FF40040ADF8000001208DF802003D
:101D900010208DF8030069469E481CF03BFDA020F2
:101DA000ADF8000001208DF8020010208DF803002E
:101DB000694698481CF02EFD4020ADF80000012037
:101DC0008DF8020004208DF80300694691481CF04C
:101DD00021FD1020ADF8000001208DF80200102038
:101DE0008DF8030069468B481CF014FD10218948CA
:101DF0001CF0BBFD4FF42040ADF8000001208DF831
:101E0000020018208DF80300694683481CF002FD8B
:101E10003820ADF8000001208DF8020018208DF860
:101E2000030069467C481CF0F5FC0420ADF8000076
:101E300001208DF8020010208DF8030069467848D3
:101E40001CF0E8FC042176481CF08FFD4FF4805014
:101E5000ADF8000001208DF8020010208DF803007D
:101E600069466E481CF0D6FC4FF480516B481CF05C
:101E70007CFD4FF40070ADF8000048208DF80300A1
:101E8000694666481CF0C6FC4FF4E060ADF80000FF
:101E900048208DF8030069465E481CF0BBFC4FF4F7
:101EA0007070ADF8000004208DF8030069465A48B0
:101EB0001CF0B0FC0C20ADF8000004208DF80300ED
:101EC000694654481CF0A6FC40F60440ADF80000FA
:101ED00001208DF8020014208DF8030069464E4859
:101EE0001CF098FC04214C481CF03FFD4FF480612D
:101EF00049481CF03AFD4FF4006147481CF035FD9D
:101F00004FF40060ADF8000001208DF802001020B1
:101F10008DF8030069463F481CF07CFC4FF480506C
:101F2000ADF8000001208DF8020014208DF80300A8
:101F3000694638481CF06EFC4FF4006135481CF0CF
:101F400014FD4FF4805133481CF00FFD0320ADF811
:101F5000000001208DF8020018208DF8030069466A
:101F60002C481CF057FC4FF4E070ADF80000032043
:101F70008DF8020010208DF80300694627481CF0F8
:101F800049FC4FF4A040ADF8000001208DF802009C
:101F900010208DF8030069461F481CF03BFC4FF4ED
:101FA00080411D481CF0E3FC4FF480511A481CF09E
:101FB000DCFC4FF4807119481CF0D7FC08BD0120EF
:101FC000114908700020184908700948407A07280C
:101FD00002DD0020064948720548407A03282EDABF
:101FE0000020054908700248007F1FE00E00002015
:101FF000B0160020381800201E0000201A00002013
:1020000014010020502002081C000020580000206D
:102010005900002000080140000C01400010014060
:1020200000140140100014001D0000207E4901EB47
:10203000C0007E49497A405C7D4908801DE07B48AC
:10204000407A08280FDA7948407A801E794908706A
:102050007648007F744901EBC0007449497A405CBE
:102060007349088009E00020724908706F48007FBA
:102070006D4911F830006E490880704710B5FFF7C0
:102080002AFE01201EF09FFA00BF61201EF0EDF92C
:102090000028FAD045F255501CF008FD04201CF031
:1020A00008FD4FF4C8601CF007FD1CF008FD1CF093
:1020B0000BFD01213C201EF000FB012145F2010037
:1020C0001EF0FBFA01215C481CF073FC01215B4807
:1020D0001EF000FB012108461EF0E2FA00F0CCF8E9
:1020E00000F019F9FFF723FE00F0E4FB00F00CFC10
:1020F00000F04BFC00F03AF900F05DFA03204B4988
:1021000088710EF0EDFA04F06AFC1BF0A7FA81204A
:102110000EF04FFA4548807907280FDA434989794C
:10212000474A12F811000EF058FA40498979444A9A
:1021300032F8111008120EF050FA05E030200EF0BF
:102140004CFA04200EF049FA3848407E08B11BF0E2
:102150008CFC3648807D08B100F0E1FA1CF0AFFC41
:1021600000F0B7FD11F059FF11F057FF1CF0A7FC6C
:102170000EF086FB002333A20A2130200EF06BFC08
:102180000EF068FA1CF09BFC4FF4C87016F0C1FA10
:102190002F4880682F49096808432D49886011F04D
:1021A000F5FF1CF08CFC4FF4C87016F0B2FA28480A
:1021B00080682849096808432549886011F0E6FFCE
:1021C000002325A20A2130200EF045FC0EF042FA31
:1021D0001CF075FC1E4880681E49496808431C496C
:1021E000886012F05FFE00231EA20A2130200EF04C
:1021F00032FC0EF02FFA1CF062FC4FF4167016F051
:1022000088FA0EF03DFBFFF74FFDFFF7D8FE0748B9
:102210004079092804DD05484079401F15490870B8
:1022200001F072F810BD000050210208B016002025
:102230001A0000201E0000200002300007C0040029
:102240009C3802086C6F6164696E67202E20000064
:1022500014010020502002086C6F6164696E6720D1
:102260002E202E006C6F6164696E67202E202E2058
:102270002E0000001200002008B51C208DF8000080
:1022800001208DF8010005208DF8020001208DF855
:10229000030068461DF0C7FE1D208DF800000120D8
:1022A0008DF8010002208DF8020001208DF8030056
:1022B00068461DF0B8FE1E208DF8000001208DF844
:1022C000010003208DF8020001208DF8030068460C
:1022D0001DF0A9FE4FF4A0601DF0A0FE27208DF890
:1022E000000000208DF801008DF8020001208DF81B
:1022F000030068461DF097FE0C208DF800000020BA
:102300008DF8010001208DF802008DF80300684669
:102310001DF089FE08BD00B58BB011481DF03AFFD5
:102320001048009010480190102002901420039053
:1023300000200490802005900020079008904FF422
:102340000050099000200A90694605481DF0C4FF1E
:102350000122022102481DF0F6FF0BB000BD000073
:102360001C000240044800401C0200200EB540F250
:10237000E730ADF8040040F2CF20ADF800000020B7
:10238000ADF80600ADF802006946FE481CF008FEF4
:102390000121FC481DF03AFC01221146F9481DF0CC
:1023A00076F90121F7481DF057F90EBD10B501214E
:1023B000F4481DF01AFC002876D00121F1481DF0E8
:1023C00025FCF1480078401CEF490870EF48008870
:1023D000401C00B2ED490880ED480078401CEC49F3
:1023E0000870E9480078632827DD0020E649087076
:1023F000E8480078401CE7490870E7480078401C2E
:10240000E5490870E5480078401CE4490870E44854
:10241000007840B9E3480078072804D1E2480088F2
:10242000401CE1490880E1480078401CDF49087001
:10243000DF480078401CDE490870D34800780A2144
:1024400090FBF1F201FB120028B9DA480088401C29
:1024500000B2D8490880D748B0F90000B0F5E04F85
:1024600002DD0020D3490880D14800783B2808DDF0
:102470000020CF490870D0480088401C00B2CE49E7
:102480000880C248B0F90000B0F5E04F02DD00203E
:10249000BE490880BC480078232813D005DC0528F5
:1024A00018D00A2827D105E084E0372813D0632804
:1024B00021D118E0C1484068C14949690843BF4972
:1024C000486019E0BD484068BD4989690843BB4977
:1024D000486011E000BFB9484068B94949680843FD
:1024E000B649486008E0B5484068B549896808437E
:1024F000B249486000E000BF00BFB0480068B04982
:10250000C968084204D0AF480078401CAD49087043
:10251000AA480068AA49096A0843A8490860084609
:102520004068A74909680843A4494860984800786A
:1025300046280CDD002096490870A0480068A04994
:10254000C96908439D49086001209F490870914866
:1025500000781E2804DD00208E49087000F0B9FBC9
:102560008D480078052804DD00208B49087000F0B4
:10257000B0FB9648008800F03000302803D10020DE
:102580009349087016E092480078401C9049087002
:102590009048407B062190FBF1F201FB12008E492E
:1025A000085C8B490978884204DA00208849087061
:1025B00000F08FFB10BD0EB540F2E730ADF804001F
:1025C00040F2CF20ADF800000020ADF80600ADF8D5
:1025D0000200694681481CF0E3FC01217F481DF0A0
:1025E00015FB012211467D481DF051F801217B4861
:1025F0001DF032F80EBD10B5012178481DF0F5FA36
:10260000002870D0012175481DF000FB7448007847
:10261000401C7349087008460078632801DD0020DB
:10262000087070480078E8B16F480088401C6E4917
:10263000088008460088B0F5967F13DD00200880EA
:1026400000F047FB5D4800685D49D1F888100840FC
:102650005A490860084600685949D1F88C1008406A
:10266000564908605E48007837280FD006DC0528F8
:102670000BD00A281AD023284ED10FE03C2833D0A3
:10268000462839D0502847D13EE000BF4B488068EB
:102690004B4909680843494988603EE0474840681B
:1026A0004749096908434549486036E04F49088869
:1026B00000EBD0714910B0EB410107D03F48806872
:1026C0003F49896908433D49886006E03B48806886
:1026D0003B49C96908433949886044480088401C1F
:1026E0004249088019E019E0344880683449096A91
:1026F00008433249886010E0304840683049C96971
:1027000008432E49486008E02C4880682C494969F4
:1027100008432A49886000E000BF00BF10BD00B533
:1027200087B049F63F40ADF814001120ADF8100015
:102730000020ADF81600ADF8120004A94FF080405B
:102740001CF02EFC012188071DF086F87020ADF8E2
:1027500000000120ADF806000020ADF808000120BF
:10276000ADF80200694680071CF057FC0120ADF867
:102770000600694680071CF092FC012188071CF0C6
:102780006BFF35E000080040100000200A00002028
:10279000110000205C000020040000201200002036
:1027A0001D0000201E0000203A0000202200002012
:1027B000170000200C000020180000201401002049
:1027C00050200208050000201C0000200C4800409A
:1027D000BC000020B0160020682102080004004060
:1027E00013000020070000206000002014000020DB
:1027F000012188071CF03CFF07B000BD002102E06A
:1028000000BF4A1C91B28142FADB704710B54021EB
:10281000E0481CF090F808B1012010BD0020FCE752
:1028200070B5054680241CE02021DA481CF09DF894
:102830000220FFF7E3FF254204D18021D5481CF098
:1028400096F803E08021D3481CF08FF80220FFF7B0
:10285000D5FF2021CF481CF08AF80220FFF7CEFFD9
:102860006410002CE0DC8021CA481CF07EF80220B5
:10287000FFF7C4FF70BD70B506460025802415E043
:102880002021C4481CF071F80220FFF7B7FF202177
:10289000C0481CF06CF80220FFF7B0FFFFF7B6FF4E
:1028A00000B125430220FFF7A9FF6410002CE7DCEC
:1028B000284670BD704770B50546002406E0601CD0
:1028C00084B2B4F57A7F01DD002070BD0221B248E8
:1028D0001CF05BFA0028F2D02946AF481CF002FA3F
:1028E000002406E0601C84B2B4F57A7F01DD00208C
:1028F000EBE70121A8481CF048FA0028F2D0A648CE
:102900001CF0F2F9C0B2E0E700B585B00020ADF8E8
:1029100000004FF48270ADF802000020ADF8040012
:102920000220ADF806000120ADF808004002ADF825
:102930000A001020ADF80C000020ADF80E000720B2
:10294000ADF81000694694481CF0F6F80121924851
:102950001CF097F905B000BD10B5044600BF022178
:102960008E481CF012FA0028F9D021468B481CF042
:10297000B9F900BF012189481CF007FA0028F9D0F5
:1029800086481CF0B1F9C0B210BD00B585B000207A
:10299000ADF800004FF48270ADF802000020ADF8F1
:1029A00004000220ADF806000120ADF80800400246
:1029B000ADF80A001020ADF80C000020ADF80E00B4
:1029C0000720ADF81000694674481CF0B5F80121E5
:1029D00072481CF056F9042171481BF0C8FF06200C
:1029E000FFF7BAFF04216E481BF0BFFF04216C48BB
:1029F0001BF0BDFF0120FFF7AFFF0020FFF7ACFF8A
:102A0000042167481BF0B1FF042165481BF0AFFFAC
:102A10000420FFF7A1FF042161481BF0A6FF05B0C9
:102A200000BD2DE9F04105460F461446002604215D
:102A30005B481BF09CFF0620FFF78EFF04215848DF
:102A40001BF093FF042156481BF091FF0220FFF773
:102A500083FF2812FFF780FFE8B2FFF77DFFB04643
:102A60000AE020783044C6B214F8010BFFF774FF77
:102A700008F1010000F0FF08B845F2DBF043C6B2F0
:102A80003046FFF769FF042145481BF06EFF042123
:102A900043481BF06CFF0420FFF75EFF0421404811
:102AA0001BF063FF3F480078012801D1BDE8F081A9
:102AB0003D4800683D498968084201D018F0E6FEAB
:102AC000394800683949C968084201D000F059F90D
:102AD0003548006835494968084201D000F086F958
:102AE00000BFE3E72DE9F04705468A461646002772
:102AF0002C480078B8B92C4800682C4989680842ED
:102B000001D018F0C3FE284800682849C968084267
:102B100001D000F036F92448006824494968084289
:102B200001D000F063F900F041FF8146B9F1030FD5
:102B300002D10020BDE8F087042119481BF017FFDF
:102B40000320FFF709FF2812FFF706FFE8B2FFF79F
:102B500003FF4FF000080BE05520FFF7FDFE044691
:102B600006F8014B3819C7B208F1010000F0FF0860
:102B7000D045F1DB5520FFF7EFFE0446042108485D
:102B80001BF0F3FEF843C7B2BC4201D10120D1E7EC
:102B90000020CFE70008014000380040003C004022
:102BA00000140140080000201401002050200208F9
:102BB00010B540F22551FE481DF0ECF990B1FC48EB
:102BC000001D0088C1B2FB4802780078401CF94B18
:102BD0001870F948815418460078FE2802DD00205C
:102BE0001946087040F22441F1481DF0D3F9F0B1C4
:102BF000EF480088EE48001D0088EE48007800B9D4
:102C000010BD002240F22551E9481DF0DEF80022F7
:102C100040F22441E6481DF0D8F80020E74908704A
:102C2000E7480068E74989680843E549086040F2D9
:102C3000FF31DF481DF0A5F900BFE1E710B5202006
:102C40001DF0A3FB0021E0481DF071FB4021D84896
:102C50001DF097F9DA480068DA49C9680843D8498D
:102C600008600020D949087010BD1FB50020D84960
:102C700008704FF40041D7481BF077FE0020CD4983
:102C800008700C20ADF80A00002240F22771C848F5
:102C90001DF09BF8002240F22661C5481DF095F812
:102CA000012240F22551C2481DF08FF8012240F266
:102CB0002441BF481DF089F8BD480088BC48001D6C
:102CC00000880121BA481DF074F80020C24908703C
:102CD0001FBD1FB50020BE490870B6490870BF4827
:102CE000407BBF4931F810000090BC48807B03282E
:102CF00004D14FF40050ADF8060002E00020ADF81A
:102D00000600B648807B012806D18002ADF8080095
:102D10008000ADF8040011E0B048807B022808D1A3
:102D20004FF4C060ADF808004FF48050ADF80400D7
:102D300004E00020ADF80800ADF804000020ADF874
:102D40000C000C20ADF80A00694699481CF0A5FF5C
:102D50004FF400419F481BF008FE012240F225512C
:102D600093481DF032F8012240F2244190481DF0B2
:102D70002CF801218E481DF01CF80020964908709F
:102D80001FBD10B540218A481DF0EEF801280CD077
:102D90009248407B062190FBF1F201FB1200914921
:102DA000085C8A49097888421FDA00208749087040
:102DB000834800688349D1F88C1008408049086036
:102DC0007B4800887A48001D0088402186481DF015
:102DD000D8F886480078012805D1FFF77AFF00204F
:102DE0008249087001E0FFF740FF10BD10B574483C
:102DF00000687449D1F884100840714908600021C6
:102E000071481DF094FA002240F2255168481CF0E8
:102E1000DCFF002240F2244165481CF0D6FF7448D4
:102E2000007869491C3908620122802160481CF041
:102E3000F1FF012164481DF07AFA01215C481CF081
:102E4000B8FF10BD5A48008810F0200F0BD058482A
:102E5000001D0088C1B2574802780078401C554BCD
:102E60001870554881547047F0B502460C46FF2152
:102E7000FF2509E012F8016B86EA01035D4EF65C5E
:102E800086EA05015C4EF55C2600A4F10107FCB260
:102E9000F0D108464FF6FF7606EA00202843F0BD41
:102EA000F0B502460020144600210CE00A26B4FBCF
:102EB000F6F706FB1743B4FBF6F48E0003FA06F5AB
:102EC00028434E1CF1B20829F0DBF0BDF0B50146F5
:102ED0000020002901DA4B4200E00B4600220CE002
:102EE0000A2693FBF6F706FB173593FBF6F39600DD
:102EF00005FA06F42043561CF2B2082AF0DBF0BDB6
:102F0000F0B5024600201546002110E00A2695FB88
:102F1000F6F706FB1756B3B20A2695FBF6F6B5B2DE
:102F20008E0003FA06F6B4B220434E1CF1B2042917
:102F3000ECDBF0BDF0B501460020002902DA4E427C
:102F4000B3B200E08BB2002210E00A2693FBF6F742
:102F500006FB1736B4B20A2693FBF6F6B3B2960018
:102F600004FA06F6B5B22843561CF2B2042AECDB8A
:102F7000F0BD2DE9F05F06460C4617464FF00008FD
:102F80004FE001CE1EF00AFE82461C480168504602
:102F90001EF04CFE83461A491EF0EAFC81461EF0E4
:102FA000C5FD05462846FFF77BFF05462AE00000E1
:102FB000004800405B0000201C02002004000020AC
:102FC00014010020502002081C00024005000020CF
:102FD0000700002000080140BC000020B0160020BF
:102FE0006E2102087A21020800380140CD0000203D
:102FF0005A0000208021020880220208940000204C
:103000000000204104F8015B280A04F8010B280C99
:1030100004F8010B280E04F8010B08F1010000F080
:10302000FF08B845ADDBBDE8F09F2DE9F05F054630
:103030000C4617464FF000081EE035F8020B1EF054
:10304000ADFD8246FB48016850461EF0EFFD834609
:10305000F9491EF08DFC81461EF068FD86B23046AF
:10306000FFF74EFF064604F8016B301204F8010B1F
:1030700008F1010000F0FF08B845DEDBBDE8F09F75
:103080002DE9F04705460C4617464FF000081AE0B8
:1030900035F8020B1EF082FD8146E648016848467D
:1030A0001EF0C4FD82461EF041FD86B23046FFF799
:1030B00027FF064604F8016B301204F8010B08F1F3
:1030C000010000F0FF08B845E2DBBDE8F0872DE91C
:1030D000F05F05460C4617464FF000081EE035F835
:1030E000020B1EF05BFD8246D448016850461EF07C
:1030F0009DFD8346D0491EF03BFC81461EF016FD27
:1031000086B23046FFF7FCFE064604F8016B30122B
:1031100004F8010B08F1010000F0FF08B845DEDB00
:10312000BDE8F09F2DE9F04706460C4617464FF0E4
:1031300000081DE036F8020B1EF030FD8146BF4846
:10314000016848461EF072FD82461EF0EFFC0546FF
:103150002846FFF7BBFE054604F8015B280A04F881
:10316000010B280C04F8010B08F1010000F0FF0826
:10317000B845DFDBBDE8F0872DE9F05F06460C4679
:1031800090464FF0000920E080CE002F00DA7F4209
:1031900038461EF0EBFC8246A948016850461EF0F6
:1031A00045FD83461EF0A6FC07463846FFF78EFE17
:1031B000054604F8015B280A04F8010B280C04F802
:1031C000010B09F1010000F0FF09C145DCDBBDE89E
:1031D000F09F2DE9F84F06460C4617464FF00008C1
:1031E00022E036F9020B1EF0C1FC834694480168C8
:1031F00058461EF01BFD904900901EF0B9FB824618
:103200001EF078FC0FFA80F9484615F06FF98246F7
:10321000FFF776FE054604F8015B280A04F8010B67
:1032200008F1010000F0FF08B845DADBBDE8F88FCF
:103230002DE9F04706460C4617464FF0000812E00D
:1032400036F9020B15F052F90FFA80F94846FFF7EC
:1032500071FE054604F8015B280A04F8010B08F129
:10326000010000F0FF08B845EADBBDE8F087F0B5E3
:1032700004460D461646002707E014F8010BFFF739
:103280003FFE05F80109781CC7B2B742F5DBF0BD77
:103290002DE9F04106460C4617464FF0000810E0B5
:1032A00020CE2846FFF712FE054604F8015B280AE7
:1032B00004F8010B280C04F8010B08F1010000F0E0
:1032C000FF08B845ECDBBDE8F08130B55D49087B0F
:1032D000FFF716FE05465C4981F8975029125A48B7
:1032E00080F89810022405E00021574897300155D6
:1032F000601CC4B2062CF7DB5248407B5349085C83
:10330000514981F8E70030BD70B54F4C9D34002520
:103310001BE04F49485DFFF7F3FDC6B204F8016BAF
:103320004B49303901EB45014878FFF7E9FDC6B25A
:1033300004F8016B4649303911F81500FFF7E0FD3C
:10334000C6B204F8016B681CC5B20C2DE1DB3E4C23
:10335000C13400251CE03E490C31485DFFF7D0FD2B
:10336000C6B204F8016B3A49183901EB45014878B7
:10337000FFF7C6FDC6B204F8016B3549183911F8DC
:103380001500FFF7BDFDC6B204F8016B681CC5B29D
:103390000C2DE0DB2E49303991F85500FFF7B0FDD8
:1033A000C6B2294880F8E5602949303991F85400BF
:1033B000FFF7A6FDC6B2244880F8E6602148408D9C
:1033C00002280FDA1F48008D78280BDA00201E49EA
:1033D00081F8E80000211C4880F8E910082180F8F5
:1033E000EA1026E01748408D022803DA1548008DC0
:1033F000782807DC1348408D01280FDD1148008D27
:1034000078280BDA0020104981F8E80000210E48E6
:1034100080F8E910022180F8EA100AE000200A4949
:1034200081F8E8005021084880F8E910002180F870
:10343000EA1070BD8C0000200000204190000020A8
:1034400094000020B0160020A41A00208023020857
:10345000681800202DE9F047FE49088D1EF09EFBFC
:103460000446FC49086A1EF099FB054621461EF0F9
:103470007FFAF9490860F749488D1EF08FFB044632
:10348000F449486A1EF08AFB054621461EF070FA90
:10349000F2490860EF49488D1EF080FB0646ED4971
:1034A000486A1EF07BFB0746EA49088D1EF076FB52
:1034B0008046E849086A1EF071FB814641461EF0CD
:1034C00057FA054639461EF0B1FB044631461EF058
:1034D0004FFAE34908600522E249E348FFF749FD56
:1034E0000522E0493031E0482830FFF742FD05224F
:1034F000DC494431DC483C30FFF73BFD0122D9492F
:10350000DA48FFF736FD0322D6491431D748001DAB
:10351000FFF72FFD0122D3492031D4481430FFF7A3
:1035200028FD0122CF492831D0481830FFF721FD6E
:103530000122CC492C31CD481C30FFF71AFD012265
:10354000C8492431C9482030FFF713FD0322C5497B
:103550005831C6483838FFF768FD0322C1495E314B
:10356000C2483238FFF761FD0322BE496431BF48CB
:103570002C38FFF7ACFD0122BA496A31BC48FFF78D
:10358000FBFD0322B7496D31B9480C38FFF7F4FD54
:103590000122B4497631B5481638FFF71AFE0322E6
:1035A000B0497831B1481C38FFF713FE0122AD490C
:1035B0007E31AE48801FFFF73BFE0322A9498031D0
:1035C000AA480C38FFF734FE0122A6498631A748E5
:1035D0000E38FFF7FEFD0322A2498831A3481438B4
:1035E000FFF7F7FD01229F498E31A048001FFFF72A
:1035F0001FFE03229B4993319E48FFF738FE0122AC
:10360000984990319B48801DFFF731FE0322954970
:1036100096319848C01CFFF72AFE0020914981F896
:10362000EB0093480C380068002806DA084690F84A
:10363000EB0040F0010081F8EB008D480C38406849
:10364000002807DA874890F8EB0040F0020085492F
:1036500081F8EB0086480C388068002807DA81483A
:1036600090F8EB0040F004007E4981F8EB008048C0
:103670000C38C068002807DA7A4890F8EB0040F070
:103680000800784981F8EB007B480068002807DAD9
:10369000744890F8EB0040F01000724981F8EB009C
:1036A00075484068002807DA6E4890F8EB0040F053
:1036B00020006C4981F8EB006F488068002807DA29
:1036C000684890F8EB0040F04000664981F8EB0054
:1036D0006948C068002807DA624890F8EB0040F0BB
:1036E0008000604981F8EB00062264496448FFF7D6
:1036F0009FFDBDE8F0872DE9F0475649088D1EF083
:103700004DFA05465349086A1EF048FA064629460E
:103710001EF02EF9504908604E49488D1EF03EFAC1
:1037200005464C49486A1EF039FA064629461EF0FD
:103730001FF94A4908604749488D1EF02FFA07468D
:103740004449486A1EF02AFA80464249088D1EF014
:1037500025FA81463F49086A1EF020FA824649460A
:103760001EF006F9064641461EF060FA0546394647
:103770001EF0FEF83A49086005223A493A48FFF738
:10378000F8FB05223749303137482830FFF7F1FB85
:1037900005223449443134483C30FFF7EAFB01222A
:1037A00030493248FFF7E5FB03222E4914312F48F8
:1037B000001DFFF7DEFB01222A4920312B4814307F
:1037C000FFF7D7FB01222749283128481830FFF797
:1037D000D0FB012223492C3124481C30FFF7C9FBC0
:1037E00001222049243121482030FFF7C2FB032267
:1037F00022490C391D483838FFF742FC03221F4983
:10380000891F1A483238FFF73BFC03221B492F3926
:1038100016482C38FFF786FC012212496A311448F9
:10382000FFF7AAFC03220F496D3111480C38FFF74E
:10383000A3FC0122114926390F480C30FFF79CFCEC
:1038400003220E4923390C48FFF796FC01220B494D
:103850001A3917E0B01600208C00002090000020DC
:1038600094000020A41A00209C1800203C16002080
:10387000F028002090180020F4280020BF1B002012
:10388000F41700204148FFF777FC032240493F48E6
:103890000C38FFF771FC01223D4986393D48FFF79E
:1038A000C7FC03223A4984393A48801FFFF7C0FC1D
:1038B0000122374976393748801CFFF7B9FC0322CB
:1038C000334971393448FFF7D2FC01223049743949
:1038D0003148801DFFF7CBFC03222D496E392E485D
:1038E000C01CFFF7C4FC00242C48C068002801DA83
:1038F00044F010042A48C068002801DA44F020048B
:10390000284880F80D41002180F80E11002423483A
:103910000068002801DA44F00104204840680028CB
:1039200001DA44F002041D488068002801DA44F0FE
:1039300004041A48C068002801DA44F00804184852
:103940000068002801DA44F0100415484068002897
:1039500001DA44F0200412488068002801DA44F0BB
:1039600040040F48C068002801DA44F080040D4884
:1039700080F82741002180F82811062200F21B114F
:103980000948FFF755FCBDE8F0870000102900202A
:10399000A81B00203616002090180020E4280020E4
:1039A000F4280020A41A0020F417002070B5002687
:1039B000FA481AF0C9FF0546082000EAA515F8489C
:1039C0001AF0C2FF0446042000EAA410022101EA12
:1039D00024210843C4F38021084340EA05040F2052
:1039E00020EA0406304670BD10B5FFF7DFFFED4951
:1039F0000870ED48007800F00F000978884203D085
:103A00000020EA49087013E0E9480078401E10F0F1
:103A1000FF00E74908700BD1252008700120E54917
:103A20000870E1480078E04908700420DF49087018
:103A300010BD10B5DE480078401E10F0FF00DC49D4
:103A4000087019D0FFF7B2FFD6490870D648007841
:103A500000F00F000978884211D00120D549087084
:103A6000D148007840F0C000CF4908700020CF490D
:103A70000870D149087002E00020CC49087010BDE0
:103A800010B5FFF793FFC7490870C748007800F0EA
:103A90000F00097888420AD00120C6490870C24840
:103AA0000078C14908700020C049087019E0C0487A
:103AB0000078401E10F0FF00BD49087011D10120B0
:103AC000BC490870B848007840F0C000B64908709A
:103AD0000320B6490870AA20B54908700020B649ED
:103AE000087010BD10B5B2480078401E10F0FF00FD
:103AF000AF4908703BD1FFF759FFAA490870084643
:103B0000007828B90020A9490870AC49087010BD98
:103B1000A4480078A44908704FF480719F481AF0B7
:103B200024FF0020A64908709F480078012807D08C
:103B30009D480078022803D09B48007808280DD1C2
:103B400025209B49087001209A4908709648007802
:103B50009549087004209549087008E0AA20944906
:103B6000087002209149087000209349087000BF36
:103B7000CDE710B500208C4908708D490870FFF71B
:103B800015FF88490870084600780F2809D00120E1
:103B9000864908700520864908700020864908700B
:103BA00002E000208549087010BD10B58548006806
:103BB0008549D1F8A0100840824908607B48007808
:103BC000052813D2DFE800F00306090C0F00FFF709
:103BD000D0FF0BE0FFF786FF08E0FFF751FF05E09D
:103BE000FFF727FF02E0FFF7FFFE00BF00BF7148AD
:103BF0000078012809D100207449088071480068C4
:103C00007149496A08436F49086010BD664A1278D5
:103C1000012A07D102880AB9018010E00288521EE9
:103C200002800CE0604A1278022A08D102888A4297
:103C300002DB0022028002E00288521C02807047F0
:103C4000012063490870704710B5624C22462C2150
:103C50007020FEF7E6FE22462C214FF48E60FEF720
:103C6000E0FEDA34224604216A20FEF7DAFE22461C
:103C7000042140F26A40FEF7D4FE574C2246082148
:103C8000EE20FEF7CEFE2246082140F2EE40FEF77F
:103C9000C8FE5048807D08B1FEF741FD002018F0B5
:103CA000EBFF012018F0E8FF10BD10B53E4800788A
:103CB00008280CD14948006908B9FFF7C5FFFFF78C
:103CC000BFFF002046490870464908800EE036488C
:103CD0000078042803D101204349088006E03F48CA
:103CE000808A81B23D481030FFF790FF10BDFCB5CF
:103CF0000026009601960468B2F57A7F01D202236D
:103D00000BE042F21076B24201D2032305E0374EB7
:103D1000B24201D2042300E00523652A1ED2224EBE
:103D20003678012E09D10668964202D10026066037
:103D30000EE00668761C06600AE01B4E3678022EFE
:103D400006D106680EB9026002E00668761E0660BB
:103D50000668964201D90026066096E0244EB242DB
:103D60007DD200250BE00A26B4FBF6F706FB1746CA
:103D70000DF805600A26B4FBF6F46E1CF5B25E1C65
:103D8000B542F0DB084E3678012E35D10E789E42D2
:103D900030DA0E78761C0E702EE000000010014024
:103DA0000008014024000020260000202E000020F2
:103DB0002D00002025000020380000202F000020CA
:103DC0001200002014010020502002083A000020B8
:103DD0001D000020B016002082000020DC1500200D
:103DE00031000020680000206C000020A086010047
:103DF00040420F0000260E70F84E3678022E11D188
:103E00000E781DF80660092E08DA0E781DF8066097
:103E1000761CF6B20F780DF8076003E000260F78E5
:103E20000DF807609DF800609DF8017007EB8707AB
:103E300006EB47069DF8027007EBC70C0CEB071763
:103E400006EB87069DF8037007EB470CCCEBC71712
:103E500006EBC7079DF8046040F2712C00E012E009
:103E600006FB0CF607EB06179DF8056040F6354C8F
:103E700006FB0CF607EB4614944202D900260660B6
:103E800003E0046001E000260660FCBD0220D44986
:103E90000880D4480068062831D2DFE800F03003FB
:103EA0000412172600BFCF48008A81B2CD480068AF
:103EB000401ECD4A02EB8000CA4A926820F81210D8
:103EC00021E0C848007CC949C8721CE0C548017C93
:103ED00080680246C548143081541438C07E0328D7
:103EE00002DA0321C148C1760DE0BE48008A01B262
:103EF000BC488268BD48DA3020F8121003E0012087
:103F0000B749088000BF00BF7047FCB502460025D6
:103F10000095019514680323002008E0850024FA29
:103F200005F505F00F052DF81050451CE8B25D1C95
:103F3000A842F3DBA94D2D78012D08D10D789D42C3
:103F400003DA0D786D1C0D7001E000250D70A34D96
:103F50002D78022D11D10D783DF815500F2D08DA6E
:103F60000D783DF815506D1CADB20E782DF8165039
:103F700003E000250E782DF81650984D2D78042D6D
:103F800011D10D783DF81550002D08DD0D783DF864
:103F900015506D1EADB20E782DF8165003E00F25AA
:103FA0000E782DF81650BDF80050BDF8026005EBF4
:103FB0000615BDF8046005EB0625BDF8066005EBA7
:103FC0000635ADB21560FCBD00B586480068012815
:103FD00003D08448006802281FD180480078082850
:103FE00002D1FFF753FF2DE081497E481030FFF7E3
:103FF0008CFF7C480068012805D17A48008A4FF080
:10400000804188861EE07748006802281AD17548EA
:10401000008A4FF08041088714E070480078042837
:1040200003D102206E4908800CE06C480078082813
:1040300002D1FFF72BFF05E06A486D494269103055
:10404000FFF755FE00BD00B56648006800287DD129
:1040500062480078042803D1012061490880C3E147
:104060005E4800780828FAD15E48806878B96148CF
:10407000C0685C498968604A52F8211008435D496C
:10408000C86058488068401C56498860ACE1554873
:10409000806801284AD15948006847F23051884267
:1040A00007DB56484068884203DB544880688842F2
:1040B00000DA00BD514800684BF2B031884207DC9D
:1040C0004E484068884203DC4C488068884200DDE6
:1040D000EFE74B48006849F64041884207DB484813
:1040E0004068884203DB46488068884200DAE0E79F
:1040F000434800684349884207DC41484068884299
:1041000003DC3F488068884200DDD2E73948C06858
:1041100034498968384A52F8211008433549C86043
:1041200030488068401C2F4988605DE12D488068D8
:10413000022830D134480068B0F57A5F0BDB324892
:104140004068B0F57A5F06DB2F4800E0B2E0806897
:10415000B0F57A5F00DAACE72B48006845F2F05121
:10416000884207DC28484068884203DC264880688B
:10417000884200DD9DE71F48C0681A4989681E4AC9
:1041800052F8211008431B49C86016488068401C3B
:104190001449886028E113488068032848D11B48E7
:1041A0000068B0F57A5F09DB18484068B0F57A5FBF
:1041B00004DB16488068B0F57A5F00DA79E71348C7
:1041C000006845F2F051884207DC10484068884298
:1041D00003DC0E48806888421ADD6AE7260000206A
:1041E0006C000020DC15002082000020B0160020AA
:1041F000320000201401002050200208BC280020BA
:10420000D428002070110100E4280020F4280020A8
:10421000FA48C068FA498968FA4A52F821100843F6
:10422000F649C860F6488068401CF5498860DBE0C4
:10423000F348806804282ED1F3480068B0F5FA5F8F
:1042400009DBF1484068B0F5FA5F04DBEE488068AE
:10425000B0F5FA5F00DA2CE7EB48006842F6F82187
:10426000884207DCE8484068884203DCE64880680A
:10427000884200DD1DE7E148C068E1498968E14AFC
:1042800052F821100843DD49C860DD488068401CB1
:10429000DB498860A8E0DA4880680528C7D1D7489C
:1042A000C068D84949690843D449C8600120D74942
:1042B000088099E0D6480078042803D10120D3492A
:1042C000088091E0D2480078082872D10320CF49B5
:1042D0000880CB48006806287AD2DFE800F079032E
:1042E0001E39416C0320C9490880C5480068401E3A
:1042F000C84901EB8000C249896830F81100C04903
:10430000086145F6FF71BE484161008A4FF0804167
:1043100088860020C04908705EE00320BB49088001
:10432000B7480068401EBB4901EB8000B44989686A
:1043300030F81100B249086145F6FF71B04841619B
:10434000008A4FF0804108870020B349087043E09D
:10435000B248C07AAA4908610121A94841613BE0FD
:10436000A7488168AD481430405CA54908610846FB
:104370008068022803D10221A148416111E0A048D0
:10438000806818B903219E4841610AE09C48806812
:10439000072803D105219A48416102E0012198488C
:1043A000416197488068042802D10220974908801B
:1043B00012E012E00CE0924881689848DA3030F957
:1043C00011008F49086141F288318D48416103E055
:1043D00001208E49088000BF06E08948808981B2AB
:1043E00087480830FFF712FC00BF62E602208749C9
:1043F000088000208249886008460068062819D293
:10440000DFE800F00307080C101405217C48C160A8
:1044100011E000BF01217A48C1600CE0002178481A
:10442000C16008E007217648C16004E001217448BA
:10443000C16000E000BF00BF704700B5744800785D
:10444000042809D106207149088000206C490861C0
:1044500001216B4841610CE06D480078082802D1C9
:10446000FFF7C4FF05E06648808881B26448FFF723
:10447000CDFB00BD10B565480088012806D0022894
:1044800007D0032808D006280CD108E0FFF7D5FF95
:1044900009E0FFF7D8FD06E0FFF796FD03E0FFF720
:1044A00004FC00E000BF00BF10BD10B55B4C22460D
:1044B0002C217020FEF716FB28B922462C214FF440
:1044C0008E60FEF70FFB554C883422463821A02021
:1044D000FEF708FB28B9224638214FF49460FEF716
:1044E00001FB4E4CC03422461021DC20FEF7FAFAC4
:1044F00028B92246102140F2DC40FEF7F3FA484C7E
:104500002246542140F2CE20FEF7ECFA28B922468A
:10451000542140F2CE60FEF7E5FA414C5434224675
:1045200004214FF44970FEF7DDFA28B92246042130
:1045300040F22470FEF7D6FA384CD03422460A21D5
:1045400040F22A30FEF7CEFA28B922460A2140F27C
:104550002A70FEF7C7FA10BD70B5324D002404E092
:10456000002025F8020B601CC4B2182CF8DB2D4E7D
:104570002D49088832463021FEF753FA2A498888A7
:1045800032463021FEF74DFA06F13005002405E0F1
:1045900042F20F7025F8020B601CC4B2182CF7DB36
:1045A000204E30362049488832463021FEF739FA0D
:1045B0001D49C88832463021FEF733FA70BD70B508
:1045C000002416E0002507E00020184901EB041143
:1045D00021F81500681CC5B2082DF5DB0020144930
:1045E00021F8140013490855134941F82400601CB0
:1045F000C4B2062CE6DB002435E0000014010020E4
:10460000DC15002050200208E42800206C00002067
:10461000260000208200002032000020B01600207A
:10462000381800205C2800208A23020894260020E5
:10463000240100204A00002030010020FC49A01C79
:1046400001EB0016FB4931F8140032460C21FEF74D
:10465000E8F9F849891C31F8140032460C21FEF7BC
:10466000E0F9601CC4B2012CE8DB70BD70B5002419
:1046700005E00020F04941F82400601CC4B2052C7C
:10468000F7DBED4D2A4614214FF45170FEF7C9F9BE
:104690002A46142140F24470FEF7C3F970BD70B58C
:1046A00000241EE00021E54840F82410243040F8A2
:1046B0002410103040F82410203840F82410002036
:1046C000DF4941F82400DF4941F82400DE4941F880
:1046D0002400DE4941F82400DD4941F82400601C33
:1046E000C4B2042CDEDB0020DA4908600021D34884
:1046F0003838816400240FE00021D048443040F86D
:1047000024100C3040F824100C3040F824100C30E9
:1047100040F82410601CC4B2032CEDDB002517E028
:10472000002411E0002005EB8501CB4A02EB81015A
:1047300041F82400002105EB8502C84800EB820007
:1047400040F82410601CC4B2052CEBDB681CC5B219
:104750000D2DE5DBB94E324614212C20FEF761F910
:104760003246142140F22C40FEF75BF9BA4E324635
:1047700014214FF48070FEF754F932461421880159
:10478000FEF74FF919F05BF8AC4E143632461021A3
:104790004220FEF746F93246102140F24240FEF731
:1047A00040F91036324610215420FEF73AF93246CD
:1047B000102140F25440FEF734F9103632461021F1
:1047C00040F20A20FEF72DF93246102140F20A602D
:1047D000FEF727F9103632460C2140F29620FEF7FC
:1047E00020F932460C2140F29660FEF71AF90C3699
:1047F00032460C214FF42970FEF713F932460C2192
:1048000040F2A460FEF70DF90C3632460C2140F25E
:10481000B220FEF706F932460C2140F2B260FEF7F4
:1048200000F90C3632460C214FF43070FEF7F9F8DF
:1048300032460C214FF4D860FEF7F3F8FFF716FF6D
:1048400070BD10B5864C22462C217020FEF7E9F889
:1048500022462C214FF48E60FEF7E3F8883422467E
:104860003821A020FEF7DDF8224638214FF494606D
:10487000FEF7D7F8383422461021DC20FEF7D1F8B5
:104880002246102140F2DC40FEF7CBF8754C224660
:10489000542140F2CE20FEF7C4F82246542140F2C3
:1048A000CE60FEF7BEF85434224604214FF449701E
:1048B000FEF7B7F82246042140F22470FEF7B1F863
:1048C000FEF722FD664CD03422460A2140F22A30FF
:1048D000FEF7A7F822460A2140F22A70FEF7A1F857
:1048E0009C3C2246542140F2AA30FEF79AF8224618
:1048F000542140F2AA70FEF794F85B480078012832
:1049000001D1FFF7CCFE58484078012801D1FFF7CC
:1049100056FE55488078012801D1FFF71DFE0FF0A3
:104920003BFB002018F0A8F9012018F0A5F9FEF7CC
:10493000D0F918F00BF910BD10B54C4800780828D4
:104940000CD14B48006910B9FFF77BFF01E0FFF77E
:10495000ACFDFFF775F901F06DFE0EE043480078FD
:10496000042803D101204349088006E04048808A9A
:1049700081B23F481030FFF749F910BD00B53B4800
:104980000078042802D13B490880A0E0374800782D
:10499000082871D104203749088035480068042868
:1049A0002CD13348008C81B23148806800EB400242
:1049B0002B48883000EB82022D488069401C22F889
:1049C00010102B48806800EB40012548883030F8F3
:1049D000210001287BD12648806800EB4001204857
:1049E000883000EB81008088312803DD01212048D8
:1049F000C1616CE004211E48C16168E01C48006888
:104A0000072864D11A488069022836D2184890F8DD
:104A100020001749896801EB4101124A02EBC101EC
:104A2000134A126901EB4201114A9269885430E03D
:104A30009426002092230208802600203C160020A5
:104A4000A8010020B8010020C8010020D8010020E2
:104A5000F8010020540000209C180020A01900201C
:104A6000B0160020381800206E000020260000201C
:104A7000DC1500206800002023E0FA4890F82010A0
:104A8000806800EB4002F84800EB8200F54A1269AA
:104A90008154F4488069022819D2F248006978B933
:104AA0000020F049896801EB4101EF4A303A02EBFE
:104AB000C101EC4A126901EB4201EA4A9269885449
:104AC00005E0E848E949426A2030FFF710F900BDE7
:104AD00010B5E7480078042803D10320E549088091
:104AE0000BE2E348007808286FD1DE48006804280C
:104AF00074D10520DF490880DA48806800EB400166
:104B0000DD4830F8210002280ED1D648806800EB3D
:104B10004001D94800EB81004088D249086242F246
:104B20000F71D0484162DBE7CE48806800EB40015E
:104B3000D14830F821000128D2D1CA48806800EB62
:104B40004001CD4800EB8101C6488069401C31F826
:104B50001000C44908620020C4490870C148806937
:104B6000052839D2DFE800F02203272C3300C248A1
:104B70008838007D012803D13921BA48416214E008
:104B8000BD488838007D022803D13D21B5484162E7
:104B90000BE0B9488838007D032803D14121B14892
:104BA000416202E03121AF48416216E042F20F71EA
:104BB000AC48416211E042F20F71AA4841620CE038
:104BC00042F20F71A748416207E037E306E042F284
:104BD0000F71A448416200E000BFC3E3A148006830
:104BE000032821D1A34908809E48806970B99D4857
:104BF0000069022803D13C209A49886106E099485F
:104C00000069032802D10F20964988619548008BDE
:104C100001B2944882689848483000EBC200914A3B
:104C2000126920F812109DE38E48006805281ED1F5
:104C30000320904908808B48008B81B289488268A4
:104C40008D48383000EBC200864A126920F81210F5
:104C5000844800690028C0D18248806918B90021C1
:104C6000804841617EE303217E4841617AE37D48CB
:104C70000068062870D103207E4908807948806842
:104C8000F0BB78480069A0B97B488838B0F8840048
:104C900020F0010078498839A1F884000846B0F86E
:104CA00084007049098B084373498839A1F884004E
:104CB00058E36C48006903280AD26A48008B02B2A4
:104CC00068480069401E6C49543921F8102049E3B6
:104CD00064480069042817D267488838B0F884000F
:104CE00020F0020064498839A1F884000846B0F831
:104CF00084005C49098B40EA41005F49883900E043
:104D00000DE0A1F884002DE35648008B02B255480F
:104D10000069801E5849543921F8102022E3514877
:104D2000806801284DD14F480069B0B95248883891
:104D3000B0F8840020F004004F498839A1F88400BD
:104D40000846B0F884004749098B40EA81004A4987
:104D50008839A1F8840005E3E0E1424800690328AE
:104D60000AD24048008B02B23E480069401E4249C8
:104D70004A3921F81020F5E23A480069042815D292
:104D80003D488838B0F8840020F008003A49883956
:104D9000A1F884000846B0F884003249098B40EA43
:104DA000C10035498839A1F88400DBE22D48008B29
:104DB00002B22C480069801E2F494A3921F8102080
:104DC000D0E228488068022858D126480069A8B94E
:104DD00029488838B0F8840020F010002649883926
:104DE000A1F884000846B0F884001E49098B40EA07
:104DF000011021498839A1F88400B3E219480069FB
:104E000003280AD21748008B02B216480069401ED8
:104E10001949403921F81020A4E2124800690428F9
:104E200015D215488838B0F8840020F020001249C7
:104E30008839A1F884000846B0F884000949098B34
:104E400040EA41100C498839A1F884008AE20548FB
:104E5000008B02B203480069801E0749403921F8DF
:104E600010207FE2DC1500206818002032000020AE
:104E7000260000206800002038170020FE488068C7
:104E8000032846D1FC48006990B9FC48B0F884007A
:104E900020F04000F949A1F884000846B0F88400E9
:104EA000F549098B40EA8110F449A1F8840059E2E0
:104EB000F148006903280AD2EF48008B02B2EE489D
:104EC0000069401EED49523121F810204AE2EA48BB
:104ED0000069042812D2E948B0F8840020F080006C
:104EE000E649A1F884000846B0F88400E249098B3D
:104EF00040EAC110E149A1F8840033E2DE48008BAA
:104F000002B2DD480069801EDC49523121F81020D0
:104F100028E2D9488068042848D1D748006998B960
:104F2000D648B0F8840020F4A850D449A1F88400F1
:104F3000D1488069002889D00846B0F8840040F440
:104F4000A850A1F884000DE2CB48006903280AD2DA
:104F5000C948008B02B2C8480069401EC7495C318D
:104F600021F81020FEE1C4480069042813D2C34888
:104F7000B0F8840020F42850C049A1F88400BE484D
:104F80008069002893D00846B0F8840040F4285087
:104F9000A1F88400E6E1B848008B02B2B648006987
:104FA000801EB6495C3121F81020DBE1B2488068F0
:104FB000052820D1B048006990B9B048B0F8840005
:104FC00020F48040AD49A1F884000846B0F8840080
:104FD000A949097E40EA8130A849A1F88400C1E1CD
:104FE000A548008B02B2A4480069401EA34966315F
:104FF00021F81020B6E1A0488068062820D19E48FC
:10500000006990B99D48B0F8840020F400409B49A5
:10501000A1F884000846B0F884009749097E40EA68
:10502000C1309649A1F884009CE19348008B02B2FC
:1050300091480069401E91496C3121F8102091E19E
:105040008D48806807281FD18B48006988B98B4834
:10505000B0F8860020F001018848A0F88610B0F86A
:1050600086008549098B084381B28448A0F88610E0
:1050700078E18148008B02B27F480069401E7F4979
:10508000723121F810206DE17B488068082820D11A
:105090007948006990B97948B0F8860020F002019B
:1050A0007648A0F88610B0F886007349098B40EA6C
:1050B000410081B27148A0F8861053E16E48008B20
:1050C00002B26D480069401E6C49783121F8102009
:1050D00048E16948806809288CD16748006990B91F
:1050E0006648B0F8860020F004016448A0F88610F5
:1050F000B0F886006049098B40EA810081B25F48C0
:10510000A0F886102EE15C48008B02B25A48006974
:10511000401E5A497E3121F8102023E1564800688C
:1051200007288CD15448806818B1534880680128FA
:1051300037D10520524908804F488069022810D293
:105140004D48806800EB40004E4901EBC0004A49E1
:10515000096900EB410048498969405C4649086299
:105160000CE04548806800EB40014648303000EBD9
:10517000810041490969405C3F4908623E488069B5
:1051800018B917213C484162ECE03B48806902288D
:1051900003D23B2138484162E4E0032136484162B2
:1051A000E0E035488068022809D1032034490880AE
:1051B0003148017E0269334848308154D2E02E489C
:1051C0008068032816D12E4908802B48006950B901
:1051D00029488069002805D02748017E02692948AE
:1051E00054308154BEE02448017E02692548543081
:1051F0008154B7E02048806804281ED1032020494C
:1052000008801D48007E1C4909691F4A50541046F9
:10521000407810B90120114648701B48807810B9B9
:10522000012019498870184818F087FC1748006851
:105230001749896908431549086093E00E480068DA
:10524000042807D10C48808B81B20B481830FEF738
:10525000DDFC87E008480068032807D0064800689E
:10526000052803D004480068062818D102480949D7
:10527000C269183010E00000DC150020B0160020D4
:10528000680000203818002062000020140100206F
:105290005020020832000020FEF729FD62E0FC48A1
:1052A000006807285ED1FA488068022806D9F848C5
:1052B000F849C2691830FEF71AFD06E0F448808B01
:1052C00081B2F3481830FEF7A1FCF1488068042849
:1052D0002ED1EF480069012812D1ED48806928B924
:1052E000ED480078012801D1E9498861E8488069E2
:1052F00030B9E9480078022802D10C20E4498861DD
:10530000E348006902282DD1E148806928B9E248C4
:105310000078012801D1DE498861DD48806908BB39
:10532000DD48007802281DD11F20D949886119E085
:10533000D7488068032815D1D548006990B9D4486A
:10534000806928B9D4480078012801D1D049886102
:10535000CF48806930B9D0480078022802D11C209B
:10536000CB49886110BD0221CC4A1180C849096827
:1053700029BB02211180C649896805291DD2DFE8B1
:1053800001F003080D121700C149098AC44A1180AF
:1053900014E0BF49097CC24A51710FE0BC49097C45
:1053A000BF4A91710AE0BA49097CBD4A117205E011
:1053B000B749097CBA4A517200E000BF95E3B4498D
:1053C0000968012932D10221B44A1180B0498968A3
:1053D000052929D2DFE801F0030818102000AC49A4
:1053E000097CAF4A117720E0A949096919B1A84998
:1053F000098AAB4A118518E0A549096919B1A44980
:10540000098AA74A518510E0A149096919B1A04943
:105410000969A34A116208E09D49096919B19C49CB
:1054200009699F4A516200E000BF5EE3984909683C
:10543000022916D1994A11809549896851B9944930
:1054400009690029BAD092490A7C8B6894490C31C9
:10545000CA544AE38E490A7C8B6891490C31CA547C
:1054600043E38B49096803293CD18949896871BBA9
:1054700004218A4A118086498A688949D03101EB22
:10548000C201834A126931F91210814A91611146B1
:10549000096919B900227E49CA6126E37C49096974
:1054A000012903D101227A49CA611EE378490969B9
:1054B000022904D142F20F727549CA6115E3744999
:1054C00009690329B1D11E227149CA610DE3FFE7C1
:1054D0000221724A11806E49098A09B2704AA2F803
:1054E000D81002E36A49096804293FD1684909696B
:1054F00071B90221694A11806549098A8AB26449F1
:10550000896801EB41036649883121F82320ECE2E8
:105510000421624A118000215D4A91615D4A117047
:105520005B49098A8AB25A49896801EB41035C499F
:10553000883121F8232056490969022903D1002224
:105540005349CA61D1E25249896801EB4102544989
:10555000883101EB82018988312903DD01224C4920
:10556000CA61C2E204224A49CA61BEE248490968E6
:1055700005292FD10421494A118045498A684849A3
:10558000C03101EBC201424A126931F81210404A9F
:1055900091611146096919B903223D49CA61A4E222
:1055A0003B490969012903D11A223949CA619CE2A0
:1055B00037490969022904D142F20F723449CA619C
:1055C00093E23349096903298BD142F20F723049C2
:1055D000CA618AE22E490968062958D104212F4A56
:1055E000118000212B4A117029498968E1BB2849A3
:1055F000096951B92A4991F8841001F00101244A3E
:10560000916101222249CA616FE221490969032996
:105610000DD21F490969491E214A343232F911104D
:105620001B4A916142F20F721949CA615DE2184941
:10563000096904290AD21A4991F88410C1F340017A
:10564000134A916101221249CA614EE21049096967
:10565000891E134A343232F911100D4A916142F217
:105660000F720B49CA6140E2FFE7094989680129C5
:1056700046D107490969A9B9094991F88410C1F3CC
:105680008001034A916101220149CA612DE2A4E12E
:10569000DC150020320000202600002068000020D9
:1056A000B0160020F949096903290CD2F7490969A4
:1056B000491EF74A32F91110F44A916142F20F7211
:1056C000F249CA6111E2F149096904290BD2F04992
:1056D0003E3991F88410C1F3C001EC4A9161012276
:1056E000EA49CA6101E2E9490969891EE84A32F9D1
:1056F0001110E64A916142F20F72E449CA61F4E185
:10570000E249896802293ED1E049096959B9E0496D
:105710003E3991F88410C1F30011DC4A91610122F5
:10572000DA49CA61E1E1D949096903290DD2D749AA
:105730000969491ED64A0A3232F91110D34A9161D9
:1057400042F20F72D149CA61CFE1D04909690429F7
:105750000BD2CF493E3991F88410C1F34011CB4AA6
:1057600091610122C949CA61BFE1C8490969891E1D
:10577000C74A0A3232F91110C44A916142F20F72DB
:10578000C249CA61B1E1C149896803293ED1BF4913
:10579000096959B9BE493E3991F88410C1F38011A5
:1057A000BA4A91610122B949CA619EE1B7490969C2
:1057B00003290DD2B5490969491EB54A143232F997
:1057C0001110B24A916142F20F72B049CA618CE184
:1057D000AE49096904290BD2AD493E3991F88410CC
:1057E000C1F3C011A94A91610122A849CA617CE1B3
:1057F000A6490969891EA64A143232F91110A34A32
:10580000916142F20F72A149CA616EE19F498968B4
:1058100004293ED19D49096959B99D493E39B1F8DC
:105820008410C1F30021994A916101229749CA610C
:105830005BE19649096903290DD294490969491E1A
:10584000934A1E3232F91110904A916142F20F725E
:105850008E49CA6149E18D49096904290BD28C49F5
:105860003E39B1F88410C1F34021884A9161012288
:105870008649CA6139E185490969891E844A1E320F
:1058800032F91110814A916142F20F727F49CA6167
:105890002BE17E49896805291CD17C49096959B9E0
:1058A0007B493E39B1F88410C1F38031774A916168
:1058B00001227649CA6118E174490969491E744A8E
:1058C000283232F91110714A916142F20F726F4918
:1058D000CA610AE16D49896806291BD16B490969CA
:1058E00051B96B493E39B1F88410C90B674A9161CF
:1058F00001226649CA61F8E064490969491E644A9F
:105900002E3232F91110614A916142F20F725F49F1
:10591000CA61EAE05D49896807291CD15B490969C8
:1059200059B95B493E3991F8861001F00101574A97
:10593000916101225549CA61D7E054490969491E5C
:10594000534A343232F91110504A916142F20F72C7
:105950004E49CA61C9E04D49896808291CD14B49A3
:10596000096959B94A493E3991F88610C1F3400195
:10597000464A916101224549CA61B6E04349096935
:10598000491E434A3A3232F91110404A916142F2BB
:105990000F723E49CA61A8E03C49896809290DD1C6
:1059A0003A49096959B93A493E3991F88610C1F323
:1059B0008001364A916101223449CA6195E0334938
:1059C0000969491E324A403232F911102F4A916159
:1059D00042F20F722D49CA6187E02C4909680729F4
:1059E00079D104212B4A11802849896819B12749A6
:1059F0008968012906D10021244A916102222349A4
:105A0000CA6172E021498968022909D11F490A69DE
:105A10002149895C1D4A916101221C49CA6164E0E7
:105A20001A498968032915D11849096919B91C222D
:105A30001649CA6106E015490969012902D11722F0
:105A40001249CA6111490A6913490C31895C0F4A2C
:105A500091614AE00D498968042946D10B490969D9
:105A600019B963220949CA6123E008490969012972
:105A700003D10C220549CA611BE0044909690229C6
:105A80000CD11F220149CA6113E00000DC1500207F
:105A9000EE1600206800002080180020F7490969F0
:105AA000032903D11722F549CA6102E03B22F349D9
:105AB000CA61002005E0F249095CF24A1154411C18
:105AC000C8B20628F7DBED490969EE4A515CEB4A9A
:105AD00091610AE0FFE7E9490968082905D1E7492A
:105AE000097CE64A9268E84B9954704710B5E7483C
