:020000040800F2
:10000000A80E0020450100084D0100084F0100081E
:1000100051010008530100085501000800000000CC
:100020000000000000000000000000005701000870
:1000300059010008000000005B01000825120008BB
:100040005F0100085F0100085F0100085F01000810
:100050005F0100085F0100085F0100085F01000800
:100060005F0100085F0100085F0100085F010008F0
:10007000FD0100085F0100085F0100085F01000842
:100080005F0100085F0100085F0100085F010008D0
:100090005F0100085F0100085F0100085F010008C0
:1000A0005F0100085F0100085F0100085F010008B0
:1000B0005F0100085F0100085F0100085F010008A0
:1000C0005F0100085F0100085F0100085F01000890
:1000D0005F0100085F0100085F0100087513000858
:1000E0005F0100085F0100085F0100085F01000870
:1000F0005F0100085F0100085F0100085F01000860
:100100005F0100085F0100085F0100085F0100084F
:100110005F0100085F0100085F0100085F0100083F
:100120005F0100085F0100085F0100085F0100082F
:10013000DFF80CD000F02AF800480047E516000868
:10014000A80E00200648804706480047FEE7FEE765
:10015000FEE7FEE7FEE7FEE7FEE7FEE7FEE7FEE777
:10016000491200083101000840EA01039B0703D04F
:1001700009E008C9121F08C0042AFAD203E011F8E6
:10018000013B00F8013B521EF9D27047064C074D67
:1001900006E0E06840F0010394E807009847103457
:1001A000AC42F6D3FFF7C8FF6017000880170008BD
:1001B0000348008840F001000149088070470000B2
:1001C000346C004008B501460020009003480090C0
:1001D0000098084400900098008808BD006C00401A
:1001E00008B500220092044A0092009A024400924C
:1001F000009A116008BD0000006C004007480068CC
:1002000010F0200F09D02020044948600846C0693A
:100210004FF6FE7108400149C86170470000024076
:1002200021B1026842F00102026004E002684FF668
:10023000FE731A400260704701684FF6FE7211406B
:1002400001600021016041608160C1604B498842CA
:1002500008D14A490839496841F00F01474A083A2C
:1002600051608AE045491431884208D14349083930
:10027000496841F0F001414A083A51607DE03F4948
:100280002831884208D13D490839496841F47061F4
:100290003A4A083A516070E038493C31884208D106
:1002A00036490839496841F47041344A083A516086
:1002B00063E032495031884208D1304908394968F1
:1002C00041F470212D4A083A516056E02B496431BF
:1002D000884208D129490839496841F47001274A00
:1002E000083A516049E025497831884208D12349CC
:1002F0000839496841F07061204A083A51603CE091
:100300001F49884206D1011F096841F00F01021FF1
:10031000116032E01A491431884208D11849091F86
:10032000096841F0F001164A121F116025E01449D6
:100330002831884208D11249091F096841F47061C7
:100340000F4A121F116018E00D493C31884208D154
:100350000B49091F096841F47041094A121F1160D5
:100360000BE007495031884207D10549091F096848
:1003700041F47021024A121F1160704708000240C8
:10038000080402401AB103680B43036002E00368EB
:100390008B430360704710B50022026847F6F07384
:1003A0009A430C6A8B6823430C6923434C692343AB
:1003B0008C692343CC6923434C6A23438C6A2343CF
:1003C0001A430260CB6843600B6883604B68C3606C
:1003D00010BD000000B58BB00121084600F032FBD3
:1003E0001148FFF729FF1148009011480190102093
:1003F000029020200390002004908020059000208F
:100400000690079008904FF48050099000200A90C1
:1004100069460548FFF7BFFF012202210248FFF7A6
:10042000B1FF0BB000BD00001C00024004480040BA
:100430006C000020034A106000BF024A1268002AC4
:10044000FBD1704704000020014619B10B684A68CF
:10045000981A70470020FCE710B504463CB12046CE
:10046000FFF7F2FF08B9012010BD0020FCE70120D2
:10047000FAE710B504464CB12046FFF7E5FFE16806
:10048000884201D1012010BD0020FCE70120FAE7DD
:1004900070B5044600262046FFF7DEFF50B96068BD
:1004A000E168B0FBF1F201FB1205A068465D6068EF
:1004B000401C6060304670BD30B129B122B10023CC
:1004C000036043608160C2607047F0B504460D462A
:1004D00000277CB12046FFF7CCFF58B92068E168BF
:1004E000B0FBF1F201FB1206A06885552068401CA4
:1004F000206001273846F0BD0149C8607047000000
:100500000020024030B5044604254FF4302000F0AE
:1005100085F80546042D17D10C48006940F002000B
:100520000A49086108464461006940F040000861DA
:100530004FF4302000F072F805460448006941F697
:10054000FD71084001490861284630BD0020024085
:1005500004200B49C96811F0010F01D001200EE001
:100560000749C96811F0040F01D0022007E00449CF
:10057000C96811F0100F01D0032000E0042070477B
:10058000002002400348006940F0800001490861F2
:10059000704700000020024078B506460C4604254E
:1005A00000200090E80200F039F80546042D24D11F
:1005B0001348006940F00100114908613480E802E5
:1005C00000F02CF80546042D10D1B01C0090200C32
:1005D00000990880E80200F021F805460848006903
:1005E00041F6FE7108400649086106E004480069CA
:1005F00041F6FE71084002490861284678BD0000B6
:1006000000200240024803494860034848607047A0
:100610002301674500200240AB89EFCD00B50246BB
:100620000423FFF795FF034603E0FFF791FF03461E
:10063000521E012B01D1002AF7D102B90523184619
:1006400000BD00002DE9F04706460F4614469846C7
:100650004FF0000940480078F8B1CA460025002054
:100660003D49087004F2FF704FEAD02AFFF7CAFF35
:100670003420FFF741FF00BF0AE006EBC520FFF77B
:1006800041FF042803D0FFF77DFF4FF0FF396D1CB9
:100690005545F2D33148066000BF3FE0304A12684A
:1006A000B9582E4A12682E4B1B68D018FFF774FFFA
:1006B000042825D129480068294909684058284953
:1006C0000968795888420DD026480068401C2549A1
:1006D000086008460068032820D9FFF753FF6FF031
:1006E00001091FE00020204908601E4908601C48DD
:1006F0000068001D1A490860B8F1000F0ED111E022
:1007000019480068401C184908600846006803281A
:1007100004D9FFF737FF6FF0020903E010480068C3
:10072000A042BBD300BF0E480068A04203D1FFF730
:1007300029FF4FF00109B9F1000F09D00120064946
:1007400008700020064908600749086005490860EC
:100750004846BDE8F0870000240000203400002057
:1007600028000020300000202C0000202DE9F0415E
:10077000024600250026002000230024002791F8CF
:1007800003C00CF00F0591F803C01CF0100F03D04C
:1007900091F802C04CEA050591F800C0BCF1000FC9
:1007A00031D0146800202BE04FF0010C0CFA00F35C
:1007B000B1F800C00CEA03069E4220D183004FF03E
:1007C0000F0C0CFA03F7BC4305FA03FC4CEA0404D3
:1007D00091F803C0BCF1280F06D14FF0010C0CFAC0
:1007E00000FCC2F814C00AE091F803C0BCF1480F45
:1007F00005D14FF0010C0CFA00FCC2F810C0401CEF
:100800000828D1D31460B1F800C0BCF1FF0F34DD6B
:10081000546800202EE000F1080C4FF0010808FA9F
:100820000CF3B1F800C00CEA03069E4221D183000C
:100830004FF00F0C0CFA03F7BC4305FA03FC4CEA2B
:10084000040491F803C0BCF1280F05D100F1080C95
:1008500008FA0CF8C2F8148091F803C0BCF1480FF4
:1008600007D100F1080C4FF0010808FA0CF8C2F8A3
:100870001080401C0828CED35460BDE8F0810000F1
:10088000F0B50A46002300240021002500F00046B0
:10089000B6F1004F02D11D4EF16901E01B4E7168A7
:1008A000C0F3034583B200F44016B6F5401F08D1EB
:1008B00021F07061154E766826F07066134F7E60E9
:1008C00012E000F48016B6F5801F06D1032606FA62
:1008D00005F4A14341F0706106E0460D360103FACC
:1008E00006F6B14341F0706122B1460D360103FABC
:1008F00006F6314300F00046B6F1004F02D1034E38
:10090000F16101E0014E7160F0BD000000000140A6
:100910000146886880B27047416170470161704745
:10092000074A126802604160826802F000428260F9
:10093000826822F0004202F10042826070470000AB
:10094000080000207047704708B527208DF8000088
:1009500000208DF801008DF8020001208DF80300C1
:10096000684600F011F80C208DF8000001208DF889
:10097000010000208DF8020001208DF80300684678
:1009800000F002F808BD000070B5002100230F221E
:10099000C4780CB3164C246804F4E064C4F5E06435
:1009A000210AC1F10403CA40447804FA03F18478AF
:1009B0001440214309010F4C0678A155047804F036
:1009C0001F050124AC4005786D114FF0E02606EBC1
:1009D0008505C5F8004109E0047804F01F050124ED
:1009E000AC40054D0678761145F8264070BD0000F4
:1009F0000CED00E000E400E080E100E0024901438A
:100A0000024A1160704700000000FA050CED00E09A
:100A1000BFF34F8F0648006800F4E06005490843C3
:100A2000001D03490860BFF34F8F00BFFEE70000C1
:100A30000CED00E00000FA05014908627047000073
:100A400000000E4229B1064A52690243044B5A6122
:100A500004E0034A52698243014B5A617047000027
:100A60000010024029B1064AD2690243044BDA6100
:100A700004E0034AD2698243014BDA617047000007
:100A80000010024029B1064A92690243044B9A6160
:100A900004E0034A92698243014B9A617047000067
:100AA0000010024030B500210022002400232D4D0B
:100AB0006D6805F00C0121B1042905D0082923D166
:100AC00005E0294D056022E0274D05601FE0254D1A
:100AD0006D6805F47012234D6D6805F480340225AD
:100AE00005EB92421CB9214D554305600BE01D4DAD
:100AF0006D6815F4003F03D01C4D5543056002E0BE
:100B0000194D5543056002E0174D056000BF00BF59
:100B1000144D6D6805F0F0010909154D6B5C056811
:100B2000DD4045600F4D6D6805F4E061090A104D28
:100B30006B5C4568DD4085600A4D6D6805F4605169
:100B4000C90A0B4D6B5C4568DD40C560054D6D689D
:100B500005F44041890B074D6B5CC568B5FBF3F5A7
:100B6000056130BD0010024000127A0000093D000E
:100B700038000020480000207CB505460E46002EB7
:100B80002DD0002400200090019055222146641CA5
:100B90000DF80120AA222146641C0DF801202146EF
:100BA000641C0DF801600E222146641C0DF8012022
:100BB0002146641C0DF8015000222146641C0DF8EA
:100BC00001202146641C0DF801202046611CCCB296
:100BD0000DF800502146684600F02EFD00BF7CBD98
:100BE00010B500F001F810BD0CB500200190009088
:100BF0003248006840F480303049086000BF2F4818
:100C0000006800F4003000900198401C01900098AA
:100C100018B90198B0F5A06FF1D12848006810F418
:100C2000003F02D00120009001E0002000900098D9
:100C3000012842D12248006840F010002049086095
:100C40000846006820F0030008600846006840F08D
:100C50000200086019484068184948600846406822
:100C600048600846406840F4806048600846406834
:100C700020F47C1048600846406840F4E810486062
:100C80000846006840F08070086000BF0B480068AC
:100C900010F0007FFAD00948406820F003000749AF
:100CA00048600846406840F00200486000BF0348C2
:100CB000406800F00C000828F9D10CBD001002407B
:100CC000002002404160704710B55448007838B1A8
:100CD00000205249087042F210715148FFF720FE7F
:100CE000504A5149514800F0AFF8801D082841D2C0
:100CF000DFE800F0412A42434445040552E0002168
:100D00004B48FFF7DFFF00204A490870474800883A
:100D1000012805DD48480078401C4749087008E074
:100D200042480088012804D13E4801780020FFF79E
:100D300023FF3E480088401E3B490988884202D173
:100D400003203E4908702DE0354800F007FB374886
:100D5000008820B1334801788020FFF70DFF354827
:100D60000078401CC0B233490870032801D13349D0
:100D7000087017E000BF00BF00BF00BF00BF2D48D4
:100D80000078401CC0B22B490870032801D12B49C0
:100D90000870244801788020FFF7EEFE00202149EA
:100DA000087000BF00BF24480078B8B11F49098807
:100DB000891E234A02EBC1201A490B7812142149DB
:100DC000FFF740FC012809D11B480078401E1A4952
:100DD0000870144801780020FFF7CEFE174800780D
:100DE000032819D132211248FFF76CFF0C4800F09C
:100DF00073FC062806D10120084908704FF41650EC
:100E000000F0EEFB0020094908800A4908700549F6
:100E1000087001200949087010BD00001E00002064
:100E20009C0A0020200000200C0000201C00002054
:100E300060000020210000200E0000201F00002084
:100E4000001800089C0200202DE9F04105460E46DE
:100E500014460027CD4800F063FA78B10020CC4951
:100E60000870CC490880CC490880CC490880CC491E
:100E70000880CC490870401FBDE8F081CA48FFF7E0
:100E8000EBFA002872D1C14800F068FAC048007837
:100E900009286CD2DFE800F0051130384A6CA9CD82
:100EA000F800C148FFF7F4FA552803D10120B849EA
:100EB000087001E06FF0050710E1BB48FFF7E8FAA2
:100EC0008046B8F1AA0F0FD10220B1490870002066
:100ED0002070B0490880B0490880B0490880B04906
:100EE0000880B049087006E0B8F1550F03D0002023
:100EF000A7490870871FF1E0AB48FFF7C9FA2070D7
:100F00000320A3490870E9E0A748FFF7C1FA0E28BB
:100F100005D009209E4908704FF0FF3705E00020FA
:100F20009D49088004209A490870D7E09E48FFF741
:100F3000AFFA804698480088404497490880B8F145
:100F4000A70F03D0B8F1A80F08D103E005209049FE
:100F5000087009E008208E49087005E009208C49D6
:100F600008706FF0010700BF00BFB7E007E1B1E014
:100F70008C48007850B34FF0000800208949087071
:100F8000844800884FF6FF7101EA002081490880FB
:100F90008548FFF77DFA80467E48008840EA0800D1
:100FA0007C4908807C48008840447B490880288828
:100FB00078490988884205D00920754908706FF082
:100FC000020702E00620724908700DE00120754911
:100FD00008707548FFF75CFA6E4908806E48008813
:100FE000098808446C49088078E0288808B90220FC
:100FF00001E04FF400606A490988884215DD6A48BB
:10100000FFF746FA6949664A1288885408466449D7
:101010000988405C6049098808445F490880604845
:101020000088401C5E49088002E00720584908708B
:1010300054E05C480078E8B100205A4908705748ED
:1010400000884FF6FF7101EA002054490880564895
:10105000FFF71EFA514909880843504908804E4855
:1010600000880988884201D06FF0030709204849A9
:10107000087007E001204B4908704B48FFF708FA59
:10108000464908802AE0FFE74748FFF701FA804613
:1010900041480088404440490880B8F1000F03D01F
:1010A000B8F1010F0ED106E0012041490870072078
:1010B000374908700CE001203E4908700720344988
:1010C000087005E00920324908706FF0010700BF81
:1010D00000BF03E009202E49087000BF00BF2C4864
:1010E000007809284FD1002029490870207832491A
:1010F0000978884204D02078FF2801D02078E8BB06
:10110000EFBB288870B92648008802280AD12749F1
:101110004978264A127841EA022030800021204A8C
:10112000118000BF2888401C2880012720480078B3
:1011300088B100201E4908702178FFF71DFD00F0DE
:10114000AFFA41F225210420FFF74AF8012000F010
:10115000BEFAFFF75DFC1748007880B10020154902
:1011600008702178FFF708FD00F09AFA00210420AA
:10117000FFF736F8012000F0AAFA01E002E002E0F1
:10118000FFF746FC0027384676E600009C0A002060
:101190000F0000201000002012000020140000208A
:1011A00016000020180000208C0200209C02002065
:1011B000190000201A0000200000002030B5164859
:1011C00000684FF47A72B0FBF2F1481EB0F1807FF4
:1011D00001D301201BE0481E4FF0E0225061501760
:1011E0000F22002807DA13071D0E0C4B00F00F0426
:1011F000241F1D5503E013071C0E094B1C5400BF90
:1012000000204FF0E022906107201061002008B11B
:1012100000BFFEE730BD00004C00002018ED00E0EC
:1012200000E400E00648006820B105480068401E60
:101230000349086003480068401C02490860704781
:1012400004000020080000202DE9F04100270121C2
:101250004FF0C050FFF706FC01210420FFF712FCFD
:101260000120FFF7E9FBFEF7A3FF002608E0264870
:10127000FFF74EFB00F4A06404B103E0701C86B2DB
:10128000C82EF4DB00BF40F217310820FEF7A8FF9C
:101290000420FEF797FF0746A7F5905025380CD09D
:1012A0005CB100210420FEF79BFF1849086880F319
:1012B000088800BF081D0568A8471548006840F069
:1012C0000100134908600846406812490840104967
:1012D000486008460068104908400D490860084603
:1012E000006820F4802008600846406820F4FE0072
:1012F00048604FF41F008860FFF772FC4FF00060F9
:1013000006490860BDE8F0810008014000180008A7
:10131000001002400000FFF8FFFFF6FE08ED00E0BD
:1013200030B501460A680C4C23689C1A4D68AC42E3
:1013300001D9012400E00024204660B18C68E40F4C
:1013400009D08C6824F000448C608C68641C8D6823
:1013500064F31E058D6030BD080000200449096853
:101360000160816821F0004101F100418160704716
:101370000800002010B51048008810F0200F06D09B
:101380000D48001D0088C1B20C48FFF79EF80A48BE
:10139000008810F0400F0ED0074800884FF6BF714C
:1013A0000840054908800020054908704FF40041B5
:1013B0000448FFF7B3FA10BD004800408C0200203B
:1013C000010000200008014021B1828942F400524E
:1013D000828104E082894DF6FF731A408281704752
:1013E0001FB5044601218804FFF73CFB0094002050
:1013F000ADF80400ADF80600ADF80800ADF80C003B
:101400000C20ADF80A0069460B4800F07DF80A4848
:101410000C30008840F0200007490C310880084655
:10142000008840F040000880034800884FF6BF71F4
:101430000840014908801FBD004800401AB1838A56
:101440000B43838202E0838A8B43838270470000D0
:1014500008B501210846FFF715FB01211F48FFF7DA
:101460000FFA01211E48FFF70BFA01211020FFF7A8
:1014700009FB4FF48060ADF8000018208DF80300E0
:1014800003208DF8020069461648FFF76FF94FF404
:101490000060ADF8000004208DF8030003208DF8F3
:1014A000020069460F48FFF761F901210420FFF7A8
:1014B000E9FA4FF40040ADF8000010208DF8030069
:1014C00001208DF8020069460748FFF74FF94FF4F5
:1014D00000410548FFF722FA08BD00001000140083
:1014E00000023000001001400008014002460020C8
:1014F000B1F5007F00D100BF13880B4201D001205D
:1015000000E00020704700002DE9F04786B0054656
:101510000E460024A24600BFA1460027B08900B1B4
:1015200000BF2F462C8A4CF6FF700440F08804431D
:101530002C82AC894EF6F3100440B0883189084300
:10154000718908430443AC81AC8A4FF6FF400440E4
:10155000B0890443AC8201A8FFF7A4FA1F48874270
:1015600002D1DDF810A001E0DDF80CA0A88910F48C
:10157000004F08D00AEBCA0000EB0A10316849009E
:10158000B0FBF1F807E00AEBCA0000EB0A10316883
:101590008900B0FBF1F86420B8FBF0F004012009E9
:1015A000642101FB1089A88910F4004F08D0322073
:1015B00000EBC900B0FBF1F000F00700044308E0C5
:1015C000322000EB09106421B0FBF1F000F00F00B5
:1015D00004432C8106B0BDE8F087000000380140CC
:1015E00010B50446FFF734FF80210F48FFF77EFF58
:1015F0002046FFF7F5FEFEF7EDFEFFF7A5F9012205
:1016000080210948FFF71AFF00210848FEF708FE6D
:1016100001210548FFF7D8FE4FF400720449054840
:10162000FEF74AFF10BD0000004800401C000240C9
:101630008C0000208C02002070B505460C4600BFCF
:101640001248008810F0400FFAD11148C0694FF6D7
:10165000FE7108400E49C8614FF400410D48FFF784
:101660005BF905200021FEF7E5FE224629460A48DF
:10167000FEF77AFD06480462C06940F001000449A3
:10168000C86101200549087070BD00000048004095
:1016900000000240000801406C0000200100002012
:1016A00000BF024800780028FBD1704701000020ED
:1016B00002E008C8121F08C1002AFAD1704770471B
:1016C000002001E001C1121F002AFBD1704700F089
:1016D000010181F3138870470146886820F00040BB
:1016E000704700001FB54FF44070FFF787F9FFF710
:1016F00065FDFFF727F94FF41650FFF771FF002043
:1017000000F028F832210E48FFF70AF90DA30FCB9D
:101710008DE80F004FF4FA700021FEF78BFE0F21C9
:101720006846FFF789FF00BF0548FFF7F9FD20B1C4
:10173000FFF709F90248FFF711FEFFF7C5FAF3E7D3
:101740006000002048656C6C6F2C20776F726C64B1
:101750002E0D0A00014908707047000000000020AB
:10176000801700080000002060000000B01600088C
:10177000E017000860000020480E0000C0160008B6
:101780000000000000000000000000000000000059
:101790000000000000000000000000000000010147
:1017A0000000000001000000000000000000000038
:1017B000000000000000000000000000010203041F
:1017C00001020304060708090204060800A24A04ED
:1017D00000000000000000000102030406070809E1
:0400000508000131BD
:00000001FF
